{
  "contractName": "GeneScience",
  "abi": [
    {
      "inputs": [
        {
          "internalType": "address",
          "name": "_privilegedBirtherAddress",
          "type": "address"
        },
        {
          "internalType": "address",
          "name": "_kittyCoreAddress",
          "type": "address"
        }
      ],
      "stateMutability": "nonpayable",
      "type": "constructor"
    },
    {
      "inputs": [],
      "name": "isGeneScience",
      "outputs": [
        {
          "internalType": "bool",
          "name": "",
          "type": "bool"
        }
      ],
      "stateMutability": "view",
      "type": "function",
      "constant": true
    },
    {
      "inputs": [],
      "name": "privilegedBirtherWindowSize",
      "outputs": [
        {
          "internalType": "uint256",
          "name": "",
          "type": "uint256"
        }
      ],
      "stateMutability": "view",
      "type": "function",
      "constant": true
    },
    {
      "inputs": [
        {
          "internalType": "address",
          "name": "_birtherAddress",
          "type": "address"
        }
      ],
      "name": "setPrivilegedBirther",
      "outputs": [],
      "stateMutability": "nonpayable",
      "type": "function"
    },
    {
      "inputs": [
        {
          "internalType": "uint256",
          "name": "_genes",
          "type": "uint256"
        }
      ],
      "name": "decode",
      "outputs": [
        {
          "internalType": "uint8[]",
          "name": "",
          "type": "uint8[]"
        }
      ],
      "stateMutability": "pure",
      "type": "function",
      "constant": true
    },
    {
      "inputs": [
        {
          "internalType": "uint8[]",
          "name": "_traits",
          "type": "uint8[]"
        }
      ],
      "name": "encode",
      "outputs": [
        {
          "internalType": "uint256",
          "name": "_genes",
          "type": "uint256"
        }
      ],
      "stateMutability": "pure",
      "type": "function",
      "constant": true
    },
    {
      "inputs": [
        {
          "internalType": "uint256",
          "name": "_genes",
          "type": "uint256"
        }
      ],
      "name": "expressingTraits",
      "outputs": [
        {
          "internalType": "uint8[12]",
          "name": "",
          "type": "uint8[12]"
        }
      ],
      "stateMutability": "pure",
      "type": "function",
      "constant": true
    },
    {
      "inputs": [
        {
          "internalType": "uint256",
          "name": "_genes1",
          "type": "uint256"
        },
        {
          "internalType": "uint256",
          "name": "_genes2",
          "type": "uint256"
        },
        {
          "internalType": "uint256",
          "name": "_targetBlock",
          "type": "uint256"
        }
      ],
      "name": "mixGenes",
      "outputs": [
        {
          "internalType": "uint256",
          "name": "",
          "type": "uint256"
        }
      ],
      "stateMutability": "view",
      "type": "function",
      "constant": true
    }
  ],
  "bytecode": "0x60806040526000805460ff191660019081179091556005905534801561002457600080fd5b50604051610ce0380380610ce0833981016040819052610043916100b0565b6001600160a01b03811661005657600080fd5b600280546001600160a01b0319166001600160a01b0392831617905560008054610100600160a81b03191661010093909216929092021790556100e2565b80516001600160a01b03811681146100ab57600080fd5b919050565b600080604083850312156100c2578182fd5b6100cb83610094565b91506100d960208401610094565b90509250929050565b610bef806100f16000396000f3fe608060405234801561001057600080fd5b506004361061007d5760003560e01c806354c15b821161005b57806354c15b82146100c457806361a76900146100e157806377a74a2014610101578063fe2787e81461012157600080fd5b80630d9f5aed146100825780631597ee44146100a857806333695c59146100bb575b600080fd5b610095610090366004610963565b610136565b6040519081526020015b60405180910390f35b6100956100b6366004610884565b610599565b61009560015481565b6000546100d19060ff1681565b604051901515815260200161009f565b6100f46100ef36600461094b565b6105ff565b60405161009f91906109c3565b61011461010f36600461094b565b610689565b60405161009f919061098e565b61013461012f366004610845565b6106f8565b005b6000805461010090046001600160a01b03161580610163575060005461010090046001600160a01b031632145b156101795781431161017457600080fd5b610191565b6001546101869083610a0a565b431161019157600080fd5b8140806101c5576101a960ff84164360ff1916610a0a565b92504383106101c1576101be61010084610b2c565b92505b5081405b6040805160208101839052908101869052606081018590526080810184905260a0016040516020818303038152906040528051906020012060001c905060008061020e876105ff565b9050600061021b876105ff565b604080516030808252610620820190925291925060009190602082016106008036833701905050905060008060005b600c81101561047f57600360005b6001821061046a578161026c846004610b0d565b6102769190610a0a565b94506102848a60028b6107c5565b905061029160028a610a0a565b985080610368578785815181106102b857634e487b7160e01b600052603260045260246000fd5b60200260200101519350876001866102d09190610b2c565b815181106102ee57634e487b7160e01b600052603260045260246000fd5b602002602001015188868151811061031657634e487b7160e01b600052603260045260246000fd5b60ff909216602092830291909101909101528388610335600188610b2c565b8151811061035357634e487b7160e01b600052603260045260246000fd5b602002602001019060ff16908160ff16815250505b6103748a60028b6107c5565b905061038160028a610a0a565b985080610458578685815181106103a857634e487b7160e01b600052603260045260246000fd5b60200260200101519350866001866103c09190610b2c565b815181106103de57634e487b7160e01b600052603260045260246000fd5b602002602001015187868151811061040657634e487b7160e01b600052603260045260246000fd5b60ff909216602092830291909101909101528387610425600188610b2c565b8151811061044357634e487b7160e01b600052603260045260246000fd5b602002602001019060ff16908160ff16815250505b8161046281610b43565b925050610258565b5050808061047790610b5a565b91505061024a565b50600091505b603082101561058157600061049c886001896107c5565b90506104a9600188610a0a565b965080610511578583815181106104d057634e487b7160e01b600052603260045260246000fd5b60200260200101518484815181106104f857634e487b7160e01b600052603260045260246000fd5b602002602001019060ff16908160ff168152505061056e565b84838151811061053157634e487b7160e01b600052603260045260246000fd5b602002602001015184848151811061055957634e487b7160e01b600052603260045260246000fd5b602002602001019060ff16908160ff16815250505b508161057981610b5a565b925050610485565b61058a83610599565b9b9a5050505050505050505050565b6000805b60308110156105f95760059190911b90826105b982602f610b2c565b815181106105d757634e487b7160e01b600052603260045260246000fd5b602002602001015160ff168217915080806105f190610b5a565b91505061059d565b50919050565b604080516030808252610620820190925260609160009190602082016106008036833701905050905060005b60308110156106825761063e84826107f0565b82828151811061065e57634e487b7160e01b600052603260045260246000fd5b60ff909216602092830291909101909101528061067a81610b5a565b91505061062b565b5092915050565b610691610810565b610699610810565b60005b600c811015610682576106b9846106b4836004610b0d565b6107f0565b8282600c81106106d957634e487b7160e01b600052603260045260246000fd5b60ff9092166020929092020152806106f081610b5a565b91505061069c565b600260009054906101000a90046001600160a01b03166001600160a01b031663b047fb506040518163ffffffff1660e01b8152600401602060405180830381600087803b15801561074857600080fd5b505af115801561075c573d6000803e3d6000fd5b505050506040513d601f19601f820116820180604052508101906107809190610868565b6001600160a01b0316336001600160a01b03161461079d57600080fd5b600080546001600160a01b0390921661010002610100600160a81b0319909216919091179055565b6000808260016107d6866002610a65565b6107e09190610b2c565b901b8516831c9150509392505050565b60006108078360056108028582610b0d565b6107c5565b90505b92915050565b604051806101800160405280600c906020820280368337509192915050565b803560ff8116811461084057600080fd5b919050565b600060208284031215610856578081fd5b813561086181610ba1565b9392505050565b600060208284031215610879578081fd5b815161086181610ba1565b60006020808385031215610896578182fd5b823567ffffffffffffffff808211156108ad578384fd5b818501915085601f8301126108c0578384fd5b8135818111156108d2576108d2610b8b565b8060051b604051601f19603f830116810181811085821117156108f7576108f7610b8b565b604052828152858101935084860182860187018a1015610915578788fd5b8795505b8386101561093e5761092a8161082f565b855260019590950194938601938601610919565b5098975050505050505050565b60006020828403121561095c578081fd5b5035919050565b600080600060608486031215610977578182fd5b505081359360208301359350604090920135919050565b6101808101818360005b600c8110156109ba57815160ff16835260209283019290910190600101610998565b50505092915050565b6020808252825182820181905260009190848201906040850190845b818110156109fe57835160ff16835292840192918401916001016109df565b50909695505050505050565b60008219821115610a1d57610a1d610b75565b500190565b600181815b80851115610a5d578160001904821115610a4357610a43610b75565b80851615610a5057918102915b93841c9390800290610a27565b509250929050565b60006108078383600082610a7b5750600161080a565b81610a885750600061080a565b8160018114610a9e5760028114610aa857610ac4565b600191505061080a565b60ff841115610ab957610ab9610b75565b50506001821b61080a565b5060208310610133831016604e8410600b8410161715610ae7575081810a61080a565b610af18383610a22565b8060001904821115610b0557610b05610b75565b029392505050565b6000816000190483118215151615610b2757610b27610b75565b500290565b600082821015610b3e57610b3e610b75565b500390565b600081610b5257610b52610b75565b506000190190565b6000600019821415610b6e57610b6e610b75565b5060010190565b634e487b7160e01b600052601160045260246000fd5b634e487b7160e01b600052604160045260246000fd5b6001600160a01b0381168114610bb657600080fd5b5056fea2646970667358221220ff0e39f891295baa007e090ad2e6ca555511f962fc46032dbe3e26b287fd517764736f6c63430008040033",
  "immutableReferences": {},
  "source": "// SPDX-License-Identifier: GPL-3.0\r\n\r\npragma solidity ^0.8.0;\r\n\r\nabstract contract HauntooCoreInterface  {\r\n    function cooAddress() public virtual returns(address);\r\n}\r\n\r\n/// @title GeneScience implements the trait calculation for new kitties\r\ncontract GeneScience {\r\n    bool public isGeneScience = true;\r\n\r\n    uint256 internal constant maskLast8Bits = uint256(0xff);\r\n    uint256 internal constant maskFirst248Bits = uint256(~uint256(0xff));\r\n\r\n    // This is the privileged birther address. If this is set to 0, privileged birthing is disabled\r\n    address internal _privilegedBirther;\r\n    // Privileged window size for birthers, set to 5 blocks.\r\n    uint256 public privilegedBirtherWindowSize = 5;\r\n    HauntooCoreInterface _kittyCore;\r\n\r\n    constructor(address _privilegedBirtherAddress, address _kittyCoreAddress) {\r\n        require(_kittyCoreAddress != address(0));\r\n        _kittyCore = HauntooCoreInterface(_kittyCoreAddress);\r\n        _privilegedBirther = _privilegedBirtherAddress;\r\n    }\r\n\r\n    /// @dev set the privileged birther address\r\n    /// @param _birtherAddress the new birther address\r\n    function setPrivilegedBirther(address _birtherAddress) public {\r\n        require(msg.sender == _kittyCore.cooAddress());\r\n        _privilegedBirther = _birtherAddress;\r\n    }\r\n\r\n    /// @dev given a characteristic and 2 genes (unsorted) - returns > 0 if the genes ascended, that's the value\r\n    /// @param trait1 any trait of that characteristic\r\n    /// @param trait2 any trait of that characteristic\r\n    /// @param rand is expected to be a 3 bits number (0~7)\r\n    /// @return ascension -1 if didnt match any ascention, OR a number from 0 to 30 for the ascended trait\r\n    function _ascend(uint8 trait1, uint8 trait2, uint256 rand) internal pure returns(uint8 ascension) {\r\n        ascension = 0;\r\n\r\n        uint8 smallT = trait1;\r\n        uint8 bigT = trait2;\r\n\r\n        if (smallT > bigT) {\r\n            bigT = trait1;\r\n            smallT = trait2;\r\n        }\r\n\r\n        // https://github.com/axiomzen/cryptokitties/issues/244\r\n        if ((bigT - smallT == 1) && smallT % 2 == 0) {\r\n\r\n            // The rand argument is expected to be a random number 0-7.\r\n            // 1st and 2nd tier: 1/4 chance (rand is 0 or 1)\r\n            // 3rd and 4th tier: 1/8 chance (rand is 0)\r\n\r\n            // must be at least this much to ascend\r\n            uint256 maxRand;\r\n            if (smallT < 23) maxRand = 1;\r\n            else maxRand = 0;\r\n\r\n            if (rand <= maxRand ) {\r\n                ascension = (smallT / 2) + 16;\r\n            }\r\n        }\r\n    }\r\n\r\n    /// @dev given a number get a slice of any bits, at certain offset\r\n    /// @param _n a number to be sliced\r\n    /// @param _nbits how many bits long is the new number\r\n    /// @param _offset how many bits to skip\r\n    function _sliceNumber(uint256 _n, uint256 _nbits, uint256 _offset) private pure returns (uint256) {\r\n        // mask is made by shifting left an offset number of times\r\n        uint256 mask = uint256((2**_nbits) - 1) << _offset;\r\n        // AND n with mask, and trim to max of _nbits bits\r\n        return uint256((_n & mask) >> _offset);\r\n    }\r\n\r\n    /// @dev Get a 5 bit slice from an input as a number\r\n    /// @param _input bits, encoded as uint\r\n    /// @param _slot from 0 to 50\r\n    function _get5Bits(uint256 _input, uint256 _slot) internal pure returns(uint8) {\r\n        return uint8(_sliceNumber(_input, uint256(5), _slot * 5));\r\n    }\r\n\r\n    /// @dev Parse a kitten gene and returns all of 12 \"trait stack\" that makes the characteristics\r\n    /// @param _genes kitten gene\r\n    /// @return the 48 traits that composes the genetic code, logically divided in stacks of 4, where only the first trait of each stack may express\r\n    function decode(uint256 _genes) public pure returns(uint8[] memory) {\r\n        uint8[] memory traits = new uint8[](48);\r\n        uint256 i;\r\n        for(i = 0; i < 48; i++) {\r\n            traits[i] = _get5Bits(_genes, i);\r\n        }\r\n        return traits;\r\n    }\r\n\r\n    /// @dev Given an array of traits return the number that represent genes\r\n    function encode(uint8[] memory _traits) public pure returns (uint256 _genes) {\r\n        _genes = 0;\r\n        for(uint256 i = 0; i < 48; i++) {\r\n            _genes = _genes << 5;\r\n            // bitwise OR trait with _genes\r\n            _genes = _genes | _traits[47 - i];\r\n        }\r\n        return _genes;\r\n    }\r\n\r\n    /// @dev return the expressing traits\r\n    /// @param _genes the long number expressing cat genes\r\n    function expressingTraits(uint256 _genes) public pure returns(uint8[12] memory) {\r\n        uint8[12] memory express;\r\n        for(uint256 i = 0; i < 12; i++) {\r\n            express[i] = _get5Bits(_genes, i * 4);\r\n        }\r\n        return express;\r\n    }\r\n\r\n    /// @dev the function as defined in the breeding contract - as defined in CK bible\r\n    function mixGenes(uint256 _genes1, uint256 _genes2, uint256 _targetBlock) public view returns (uint256) {\r\n        if (_privilegedBirther == address(0) || tx.origin == _privilegedBirther) {\r\n            // Allow immediate births if there is no privileged birther, or if the originator\r\n            // of the transaction is the privileged birther\r\n            require(block.number > _targetBlock);\r\n        } else {\r\n            require(block.number > _targetBlock + privilegedBirtherWindowSize);\r\n        }\r\n\r\n\r\n        // Try to grab the hash of the \"target block\". This should be available the vast\r\n        // majority of the time (it will only fail if no-one calls giveBirth() within 256\r\n        // blocks of the target block, which is about 40 minutes. Since anyone can call\r\n        // giveBirth() and they are rewarded with ether if it succeeds, this is quite unlikely.)\r\n        uint256 randomN = uint256(blockhash(_targetBlock));\r\n\r\n        if (randomN == 0) {\r\n            // We don't want to completely bail if the target block is no-longer available,\r\n            // nor do we want to just use the current block's hash (since it could allow a\r\n            // caller to game the random result). Compute the most recent block that has the\r\n            // the same value modulo 256 as the target block. The hash for this block will\r\n            // still be available, and  while it can still change as time passes  it will\r\n            // only change every 40 minutes. Again, someone is very likely to jump in with\r\n            // the giveBirth() call before it can cycle too many times.\r\n            _targetBlock = (block.number & maskFirst248Bits) + (_targetBlock & maskLast8Bits);\r\n\r\n            // The computation above could result in a block LARGER than the current block,\r\n            // if so, subtract 256.\r\n            if (_targetBlock >= block.number) _targetBlock -= 256;\r\n\r\n            randomN = uint256(blockhash(_targetBlock));\r\n\r\n            // DEBUG ONLY\r\n            // assert(block.number != _targetBlock);\r\n            // assert((block.number - _targetBlock) <= 256);\r\n            // assert(randomN != 0);\r\n        }\r\n\r\n        // generate 256 bits of random, using as much entropy as we can from\r\n        // sources that can't change between calls.\r\n        randomN = uint256(keccak256(abi.encodePacked(randomN, _genes1, _genes2, _targetBlock)));\r\n        uint256 randomIndex = 0;\r\n\r\n        uint8[] memory genes1Array = decode(_genes1);\r\n        uint8[] memory genes2Array = decode(_genes2);\r\n        // All traits that will belong to baby\r\n        uint8[] memory babyArray = new uint8[](48);\r\n        // A pointer to the trait we are dealing with currently\r\n        uint256 traitPos;\r\n        // Trait swap value holder\r\n        uint8 swap;\r\n        // iterate all 12 characteristics\r\n        for(uint256 i = 0; i < 12; i++) {\r\n            // pick 4 traits for characteristic i\r\n            uint256 j;\r\n            // store the current random value\r\n            uint256 rand;\r\n            for(j = 3; j >= 1; j--) {\r\n                traitPos = (i * 4) + j;\r\n\r\n                rand = _sliceNumber(randomN, 2, randomIndex); // 0~3\r\n                randomIndex += 2;\r\n\r\n                // 1/4 of a chance of gene swapping forward towards expressing.\r\n                if (rand == 0) {\r\n                    // do it for parent 1\r\n                    swap = genes1Array[traitPos];\r\n                    genes1Array[traitPos] = genes1Array[traitPos - 1];\r\n                    genes1Array[traitPos - 1] = swap;\r\n\r\n                }\r\n\r\n                rand = _sliceNumber(randomN, 2, randomIndex); // 0~3\r\n                randomIndex += 2;\r\n\r\n                if (rand == 0) {\r\n                    // do it for parent 2\r\n                    swap = genes2Array[traitPos];\r\n                    genes2Array[traitPos] = genes2Array[traitPos - 1];\r\n                    genes2Array[traitPos - 1] = swap;\r\n                }\r\n            }\r\n\r\n        }\r\n\r\n        // DEBUG ONLY - We should have used 72 2-bit slices above for the swapping\r\n        // which will have consumed 144 bits.\r\n        // assert(randomIndex == 144);\r\n\r\n        // We have 256 - 144 = 112 bits of randomness left at this point. We will use up to\r\n        // four bits for the first slot of each trait (three for the possible ascension, one\r\n        // to pick between mom and dad if the ascension fails, for a total of 48 bits. The other\r\n        // traits use one bit to pick between parents (36 gene pairs, 36 genes), leaving us\r\n        // well within our entropy budget.\r\n\r\n        // done shuffling parent genes, now let's decide on choosing trait and if ascending.\r\n        // NOTE: Ascensions ONLY happen in the \"top slot\" of each characteristic. This saves\r\n        //  gas and also ensures ascensions only happen when they're visible.\r\n        for(traitPos = 0; traitPos < 48; traitPos++) {\r\n\r\n            // See if this trait pair should ascend\r\n            // uint8 ascendedTrait = 0;\r\n\r\n            // There are two checks here. The first is straightforward, only the trait\r\n            // in the first slot can ascend. The first slot is zero mod 4.\r\n            //\r\n            // The second check is more subtle: Only values that are one apart can ascend,\r\n            // which is what we check inside the _ascend method. However, this simple mask\r\n            // and compare is very cheap (9 gas) and will filter out about half of the\r\n            // non-ascending pairs without a function call.\r\n            //\r\n            // The comparison itself just checks that one value is even, and the other\r\n            // is odd.\r\n            // if ((traitPos % 4 == 0) && (genes1Array[traitPos] & 1) != (genes2Array[traitPos] & 1)) {\r\n            //     uint256 rand = _sliceNumber(randomN, 3, randomIndex);\r\n            //     randomIndex += 3;\r\n\r\n            //     ascendedTrait = _ascend(genes1Array[traitPos], genes2Array[traitPos], rand);\r\n            // }\r\n\r\n            // if (ascendedTrait > 0) {\r\n            //     babyArray[traitPos] = uint8(ascendedTrait);\r\n            // } else {\r\n                // did not ascend, pick one of the parent's traits for the baby\r\n                // We use the top bit of rand for this (the bottom three bits were used\r\n                // to check for the ascension itself).\r\n                uint256 rand = _sliceNumber(randomN, 1, randomIndex);\r\n                randomIndex += 1;\r\n\r\n                if (rand == 0) {\r\n                    babyArray[traitPos] = uint8(genes1Array[traitPos]);\r\n                } else {\r\n                    babyArray[traitPos] = uint8(genes2Array[traitPos]);\r\n                }\r\n            // }\r\n        }\r\n\r\n        return encode(babyArray);\r\n    }\r\n}",
  "sourcePath": "D:\\WorkSpace\\blockchain\\CryptoWebsite\\Hauntoo_Contract\\contracts\\GeneScience.sol",
  "compiler": {
    "name": "solc",
    "version": "0.8.4+commit.c7e474f2.Emscripten.clang"
  },
  "schemaVersion": "3.4.3",
  "updatedAt": "2021-10-01T21:32:52.990Z",
  "networkType": "ethereum",
  "devdoc": {
    "kind": "dev",
    "methods": {
      "decode(uint256)": {
        "details": "Parse a kitten gene and returns all of 12 \"trait stack\" that makes the characteristics",
        "params": {
          "_genes": "kitten gene"
        },
        "returns": {
          "_0": "the 48 traits that composes the genetic code, logically divided in stacks of 4, where only the first trait of each stack may express"
        }
      },
      "encode(uint8[])": {
        "details": "Given an array of traits return the number that represent genes"
      },
      "expressingTraits(uint256)": {
        "details": "return the expressing traits",
        "params": {
          "_genes": "the long number expressing cat genes"
        }
      },
      "mixGenes(uint256,uint256,uint256)": {
        "details": "the function as defined in the breeding contract - as defined in CK bible"
      },
      "setPrivilegedBirther(address)": {
        "details": "set the privileged birther address",
        "params": {
          "_birtherAddress": "the new birther address"
        }
      }
    },
    "title": "GeneScience implements the trait calculation for new kitties",
    "version": 1
  },
  "userdoc": {
    "kind": "user",
    "methods": {},
    "version": 1
  }
}