{
  "contractName": "HauntooCore",
  "abi": [
    {
      "inputs": [],
      "stateMutability": "nonpayable",
      "type": "constructor"
    },
    {
      "anonymous": false,
      "inputs": [
        {
          "indexed": true,
          "internalType": "address",
          "name": "owner",
          "type": "address"
        },
        {
          "indexed": true,
          "internalType": "address",
          "name": "approved",
          "type": "address"
        },
        {
          "indexed": true,
          "internalType": "uint256",
          "name": "tokenId",
          "type": "uint256"
        }
      ],
      "name": "Approval",
      "type": "event"
    },
    {
      "anonymous": false,
      "inputs": [
        {
          "indexed": true,
          "internalType": "address",
          "name": "owner",
          "type": "address"
        },
        {
          "indexed": true,
          "internalType": "address",
          "name": "operator",
          "type": "address"
        },
        {
          "indexed": false,
          "internalType": "bool",
          "name": "approved",
          "type": "bool"
        }
      ],
      "name": "ApprovalForAll",
      "type": "event"
    },
    {
      "anonymous": false,
      "inputs": [
        {
          "indexed": false,
          "internalType": "address",
          "name": "owner",
          "type": "address"
        },
        {
          "indexed": false,
          "internalType": "uint256",
          "name": "hauntooId",
          "type": "uint256"
        },
        {
          "indexed": false,
          "internalType": "uint256",
          "name": "matronId",
          "type": "uint256"
        },
        {
          "indexed": false,
          "internalType": "uint256",
          "name": "sireId",
          "type": "uint256"
        },
        {
          "indexed": false,
          "internalType": "uint256",
          "name": "genes",
          "type": "uint256"
        }
      ],
      "name": "Birth",
      "type": "event"
    },
    {
      "anonymous": false,
      "inputs": [
        {
          "indexed": true,
          "internalType": "address",
          "name": "previousOwner",
          "type": "address"
        },
        {
          "indexed": true,
          "internalType": "address",
          "name": "newOwner",
          "type": "address"
        }
      ],
      "name": "OwnershipTransferred",
      "type": "event"
    },
    {
      "anonymous": false,
      "inputs": [
        {
          "indexed": false,
          "internalType": "address",
          "name": "account",
          "type": "address"
        }
      ],
      "name": "Paused",
      "type": "event"
    },
    {
      "anonymous": false,
      "inputs": [
        {
          "indexed": false,
          "internalType": "address",
          "name": "owner",
          "type": "address"
        },
        {
          "indexed": false,
          "internalType": "uint256",
          "name": "matronId",
          "type": "uint256"
        },
        {
          "indexed": false,
          "internalType": "uint256",
          "name": "sireId",
          "type": "uint256"
        },
        {
          "indexed": false,
          "internalType": "uint256",
          "name": "cooldownEndBlock",
          "type": "uint256"
        }
      ],
      "name": "Pregnant",
      "type": "event"
    },
    {
      "anonymous": false,
      "inputs": [
        {
          "indexed": true,
          "internalType": "address",
          "name": "from",
          "type": "address"
        },
        {
          "indexed": true,
          "internalType": "address",
          "name": "to",
          "type": "address"
        },
        {
          "indexed": true,
          "internalType": "uint256",
          "name": "tokenId",
          "type": "uint256"
        }
      ],
      "name": "Transfer",
      "type": "event"
    },
    {
      "anonymous": false,
      "inputs": [
        {
          "indexed": false,
          "internalType": "address",
          "name": "account",
          "type": "address"
        }
      ],
      "name": "Unpaused",
      "type": "event"
    },
    {
      "stateMutability": "payable",
      "type": "fallback"
    },
    {
      "inputs": [],
      "name": "GEN0_AUCTION_DURATION",
      "outputs": [
        {
          "internalType": "uint256",
          "name": "",
          "type": "uint256"
        }
      ],
      "stateMutability": "view",
      "type": "function"
    },
    {
      "inputs": [],
      "name": "GEN0_CREATION_LIMIT",
      "outputs": [
        {
          "internalType": "uint256",
          "name": "",
          "type": "uint256"
        }
      ],
      "stateMutability": "view",
      "type": "function"
    },
    {
      "inputs": [],
      "name": "GEN0_STARTING_PRICE",
      "outputs": [
        {
          "internalType": "uint256",
          "name": "",
          "type": "uint256"
        }
      ],
      "stateMutability": "view",
      "type": "function"
    },
    {
      "inputs": [],
      "name": "PROMO_CREATION_LIMIT",
      "outputs": [
        {
          "internalType": "uint256",
          "name": "",
          "type": "uint256"
        }
      ],
      "stateMutability": "view",
      "type": "function"
    },
    {
      "inputs": [
        {
          "internalType": "address",
          "name": "to",
          "type": "address"
        },
        {
          "internalType": "uint256",
          "name": "tokenId",
          "type": "uint256"
        }
      ],
      "name": "approve",
      "outputs": [],
      "stateMutability": "nonpayable",
      "type": "function"
    },
    {
      "inputs": [
        {
          "internalType": "address",
          "name": "_addr",
          "type": "address"
        },
        {
          "internalType": "uint256",
          "name": "_sireId",
          "type": "uint256"
        }
      ],
      "name": "approveSiring",
      "outputs": [],
      "stateMutability": "nonpayable",
      "type": "function"
    },
    {
      "inputs": [],
      "name": "autoBirthFee",
      "outputs": [
        {
          "internalType": "uint256",
          "name": "",
          "type": "uint256"
        }
      ],
      "stateMutability": "view",
      "type": "function"
    },
    {
      "inputs": [
        {
          "internalType": "address",
          "name": "owner",
          "type": "address"
        }
      ],
      "name": "balanceOf",
      "outputs": [
        {
          "internalType": "uint256",
          "name": "",
          "type": "uint256"
        }
      ],
      "stateMutability": "view",
      "type": "function"
    },
    {
      "inputs": [
        {
          "internalType": "uint256",
          "name": "_sireId",
          "type": "uint256"
        },
        {
          "internalType": "uint256",
          "name": "_matronId",
          "type": "uint256"
        }
      ],
      "name": "bidOnSiringAuction",
      "outputs": [],
      "stateMutability": "payable",
      "type": "function"
    },
    {
      "inputs": [
        {
          "internalType": "uint256",
          "name": "_matronId",
          "type": "uint256"
        },
        {
          "internalType": "uint256",
          "name": "_sireId",
          "type": "uint256"
        }
      ],
      "name": "breedWithAuto",
      "outputs": [],
      "stateMutability": "payable",
      "type": "function"
    },
    {
      "inputs": [
        {
          "internalType": "uint256",
          "name": "_matronId",
          "type": "uint256"
        },
        {
          "internalType": "uint256",
          "name": "_sireId",
          "type": "uint256"
        }
      ],
      "name": "canBreedWith",
      "outputs": [
        {
          "internalType": "bool",
          "name": "",
          "type": "bool"
        }
      ],
      "stateMutability": "view",
      "type": "function"
    },
    {
      "inputs": [
        {
          "internalType": "uint256",
          "name": "",
          "type": "uint256"
        }
      ],
      "name": "cooldowns",
      "outputs": [
        {
          "internalType": "uint32",
          "name": "",
          "type": "uint32"
        }
      ],
      "stateMutability": "view",
      "type": "function"
    },
    {
      "inputs": [
        {
          "internalType": "uint256",
          "name": "_genes",
          "type": "uint256"
        }
      ],
      "name": "createGen0Auction",
      "outputs": [],
      "stateMutability": "nonpayable",
      "type": "function"
    },
    {
      "inputs": [
        {
          "internalType": "uint256",
          "name": "_genes",
          "type": "uint256"
        },
        {
          "internalType": "address",
          "name": "_owner",
          "type": "address"
        }
      ],
      "name": "createPromoHauntoo",
      "outputs": [],
      "stateMutability": "nonpayable",
      "type": "function"
    },
    {
      "inputs": [
        {
          "internalType": "uint256",
          "name": "_hauntooId",
          "type": "uint256"
        },
        {
          "internalType": "uint256",
          "name": "_startingPrice",
          "type": "uint256"
        },
        {
          "internalType": "uint256",
          "name": "_endingPrice",
          "type": "uint256"
        },
        {
          "internalType": "uint256",
          "name": "_duration",
          "type": "uint256"
        }
      ],
      "name": "createSaleAuction",
      "outputs": [],
      "stateMutability": "nonpayable",
      "type": "function"
    },
    {
      "inputs": [
        {
          "internalType": "uint256",
          "name": "_hauntooId",
          "type": "uint256"
        },
        {
          "internalType": "uint256",
          "name": "_startingPrice",
          "type": "uint256"
        },
        {
          "internalType": "uint256",
          "name": "_endingPrice",
          "type": "uint256"
        },
        {
          "internalType": "uint256",
          "name": "_duration",
          "type": "uint256"
        }
      ],
      "name": "createSiringAuction",
      "outputs": [],
      "stateMutability": "nonpayable",
      "type": "function"
    },
    {
      "inputs": [],
      "name": "gen0CreatedCount",
      "outputs": [
        {
          "internalType": "uint256",
          "name": "",
          "type": "uint256"
        }
      ],
      "stateMutability": "view",
      "type": "function"
    },
    {
      "inputs": [],
      "name": "geneScience",
      "outputs": [
        {
          "internalType": "contract GeneScienceInterface",
          "name": "",
          "type": "address"
        }
      ],
      "stateMutability": "view",
      "type": "function"
    },
    {
      "inputs": [
        {
          "internalType": "uint256",
          "name": "tokenId",
          "type": "uint256"
        }
      ],
      "name": "getApproved",
      "outputs": [
        {
          "internalType": "address",
          "name": "",
          "type": "address"
        }
      ],
      "stateMutability": "view",
      "type": "function"
    },
    {
      "inputs": [
        {
          "internalType": "uint256",
          "name": "_matronId",
          "type": "uint256"
        }
      ],
      "name": "giveBirth",
      "outputs": [
        {
          "internalType": "uint256",
          "name": "",
          "type": "uint256"
        }
      ],
      "stateMutability": "nonpayable",
      "type": "function"
    },
    {
      "inputs": [
        {
          "internalType": "uint256",
          "name": "",
          "type": "uint256"
        }
      ],
      "name": "hauntoos",
      "outputs": [
        {
          "internalType": "uint256",
          "name": "genes",
          "type": "uint256"
        },
        {
          "internalType": "uint64",
          "name": "birthTime",
          "type": "uint64"
        },
        {
          "internalType": "uint64",
          "name": "cooldownEndBlock",
          "type": "uint64"
        },
        {
          "internalType": "uint32",
          "name": "matronId",
          "type": "uint32"
        },
        {
          "internalType": "uint32",
          "name": "sireId",
          "type": "uint32"
        },
        {
          "internalType": "uint32",
          "name": "siringWithId",
          "type": "uint32"
        },
        {
          "internalType": "uint16",
          "name": "cooldownIndex",
          "type": "uint16"
        },
        {
          "internalType": "uint16",
          "name": "generation",
          "type": "uint16"
        }
      ],
      "stateMutability": "view",
      "type": "function"
    },
    {
      "inputs": [
        {
          "internalType": "address",
          "name": "owner",
          "type": "address"
        },
        {
          "internalType": "address",
          "name": "operator",
          "type": "address"
        }
      ],
      "name": "isApprovedForAll",
      "outputs": [
        {
          "internalType": "bool",
          "name": "",
          "type": "bool"
        }
      ],
      "stateMutability": "view",
      "type": "function"
    },
    {
      "inputs": [
        {
          "internalType": "uint256",
          "name": "_hauntooId",
          "type": "uint256"
        }
      ],
      "name": "isPregnant",
      "outputs": [
        {
          "internalType": "bool",
          "name": "",
          "type": "bool"
        }
      ],
      "stateMutability": "view",
      "type": "function"
    },
    {
      "inputs": [
        {
          "internalType": "uint256",
          "name": "_hauntooId",
          "type": "uint256"
        }
      ],
      "name": "isReadyToBreed",
      "outputs": [
        {
          "internalType": "bool",
          "name": "",
          "type": "bool"
        }
      ],
      "stateMutability": "view",
      "type": "function"
    },
    {
      "inputs": [],
      "name": "name",
      "outputs": [
        {
          "internalType": "string",
          "name": "",
          "type": "string"
        }
      ],
      "stateMutability": "view",
      "type": "function"
    },
    {
      "inputs": [],
      "name": "newContractAddress",
      "outputs": [
        {
          "internalType": "address",
          "name": "",
          "type": "address"
        }
      ],
      "stateMutability": "view",
      "type": "function"
    },
    {
      "inputs": [],
      "name": "owner",
      "outputs": [
        {
          "internalType": "address",
          "name": "",
          "type": "address"
        }
      ],
      "stateMutability": "view",
      "type": "function"
    },
    {
      "inputs": [
        {
          "internalType": "uint256",
          "name": "tokenId",
          "type": "uint256"
        }
      ],
      "name": "ownerOf",
      "outputs": [
        {
          "internalType": "address",
          "name": "",
          "type": "address"
        }
      ],
      "stateMutability": "view",
      "type": "function"
    },
    {
      "inputs": [],
      "name": "paused",
      "outputs": [
        {
          "internalType": "bool",
          "name": "",
          "type": "bool"
        }
      ],
      "stateMutability": "view",
      "type": "function"
    },
    {
      "inputs": [],
      "name": "pregnantHauntoos",
      "outputs": [
        {
          "internalType": "uint256",
          "name": "",
          "type": "uint256"
        }
      ],
      "stateMutability": "view",
      "type": "function"
    },
    {
      "inputs": [],
      "name": "promoCreatedCount",
      "outputs": [
        {
          "internalType": "uint256",
          "name": "",
          "type": "uint256"
        }
      ],
      "stateMutability": "view",
      "type": "function"
    },
    {
      "inputs": [],
      "name": "renounceOwnership",
      "outputs": [],
      "stateMutability": "nonpayable",
      "type": "function"
    },
    {
      "inputs": [
        {
          "internalType": "address",
          "name": "from",
          "type": "address"
        },
        {
          "internalType": "address",
          "name": "to",
          "type": "address"
        },
        {
          "internalType": "uint256",
          "name": "tokenId",
          "type": "uint256"
        }
      ],
      "name": "safeTransferFrom",
      "outputs": [],
      "stateMutability": "nonpayable",
      "type": "function"
    },
    {
      "inputs": [
        {
          "internalType": "address",
          "name": "from",
          "type": "address"
        },
        {
          "internalType": "address",
          "name": "to",
          "type": "address"
        },
        {
          "internalType": "uint256",
          "name": "tokenId",
          "type": "uint256"
        },
        {
          "internalType": "bytes",
          "name": "_data",
          "type": "bytes"
        }
      ],
      "name": "safeTransferFrom",
      "outputs": [],
      "stateMutability": "nonpayable",
      "type": "function"
    },
    {
      "inputs": [],
      "name": "saleAuction",
      "outputs": [
        {
          "internalType": "contract SaleClockAuctionInterface",
          "name": "",
          "type": "address"
        }
      ],
      "stateMutability": "view",
      "type": "function"
    },
    {
      "inputs": [],
      "name": "secondsPerBlock",
      "outputs": [
        {
          "internalType": "uint256",
          "name": "",
          "type": "uint256"
        }
      ],
      "stateMutability": "view",
      "type": "function"
    },
    {
      "inputs": [
        {
          "internalType": "address",
          "name": "operator",
          "type": "address"
        },
        {
          "internalType": "bool",
          "name": "approved",
          "type": "bool"
        }
      ],
      "name": "setApprovalForAll",
      "outputs": [],
      "stateMutability": "nonpayable",
      "type": "function"
    },
    {
      "inputs": [
        {
          "internalType": "uint256",
          "name": "val",
          "type": "uint256"
        }
      ],
      "name": "setAutoBirthFee",
      "outputs": [],
      "stateMutability": "nonpayable",
      "type": "function"
    },
    {
      "inputs": [
        {
          "internalType": "address",
          "name": "_address",
          "type": "address"
        }
      ],
      "name": "setGeneScienceAddress",
      "outputs": [],
      "stateMutability": "nonpayable",
      "type": "function"
    },
    {
      "inputs": [
        {
          "internalType": "address",
          "name": "_address",
          "type": "address"
        }
      ],
      "name": "setSaleAuctionAddress",
      "outputs": [],
      "stateMutability": "nonpayable",
      "type": "function"
    },
    {
      "inputs": [
        {
          "internalType": "uint256",
          "name": "secs",
          "type": "uint256"
        }
      ],
      "name": "setSecondsPerBlock",
      "outputs": [],
      "stateMutability": "nonpayable",
      "type": "function"
    },
    {
      "inputs": [
        {
          "internalType": "address",
          "name": "_address",
          "type": "address"
        }
      ],
      "name": "setSiringAuctionAddress",
      "outputs": [],
      "stateMutability": "nonpayable",
      "type": "function"
    },
    {
      "inputs": [
        {
          "internalType": "uint256",
          "name": "",
          "type": "uint256"
        }
      ],
      "name": "sireAllowedToAddress",
      "outputs": [
        {
          "internalType": "address",
          "name": "",
          "type": "address"
        }
      ],
      "stateMutability": "view",
      "type": "function"
    },
    {
      "inputs": [],
      "name": "siringAuction",
      "outputs": [
        {
          "internalType": "contract SiringClockAuctionInterface",
          "name": "",
          "type": "address"
        }
      ],
      "stateMutability": "view",
      "type": "function"
    },
    {
      "inputs": [
        {
          "internalType": "bytes4",
          "name": "interfaceId",
          "type": "bytes4"
        }
      ],
      "name": "supportsInterface",
      "outputs": [
        {
          "internalType": "bool",
          "name": "",
          "type": "bool"
        }
      ],
      "stateMutability": "view",
      "type": "function"
    },
    {
      "inputs": [],
      "name": "symbol",
      "outputs": [
        {
          "internalType": "string",
          "name": "",
          "type": "string"
        }
      ],
      "stateMutability": "view",
      "type": "function"
    },
    {
      "inputs": [
        {
          "internalType": "uint256",
          "name": "index",
          "type": "uint256"
        }
      ],
      "name": "tokenByIndex",
      "outputs": [
        {
          "internalType": "uint256",
          "name": "",
          "type": "uint256"
        }
      ],
      "stateMutability": "view",
      "type": "function"
    },
    {
      "inputs": [
        {
          "internalType": "address",
          "name": "owner",
          "type": "address"
        },
        {
          "internalType": "uint256",
          "name": "index",
          "type": "uint256"
        }
      ],
      "name": "tokenOfOwnerByIndex",
      "outputs": [
        {
          "internalType": "uint256",
          "name": "",
          "type": "uint256"
        }
      ],
      "stateMutability": "view",
      "type": "function"
    },
    {
      "inputs": [
        {
          "internalType": "uint256",
          "name": "tokenId",
          "type": "uint256"
        }
      ],
      "name": "tokenURI",
      "outputs": [
        {
          "internalType": "string",
          "name": "",
          "type": "string"
        }
      ],
      "stateMutability": "view",
      "type": "function"
    },
    {
      "inputs": [],
      "name": "totalSupply",
      "outputs": [
        {
          "internalType": "uint256",
          "name": "",
          "type": "uint256"
        }
      ],
      "stateMutability": "view",
      "type": "function"
    },
    {
      "inputs": [
        {
          "internalType": "address",
          "name": "from",
          "type": "address"
        },
        {
          "internalType": "address",
          "name": "to",
          "type": "address"
        },
        {
          "internalType": "uint256",
          "name": "tokenId",
          "type": "uint256"
        }
      ],
      "name": "transferFrom",
      "outputs": [],
      "stateMutability": "nonpayable",
      "type": "function"
    },
    {
      "inputs": [
        {
          "internalType": "address",
          "name": "newOwner",
          "type": "address"
        }
      ],
      "name": "transferOwnership",
      "outputs": [],
      "stateMutability": "nonpayable",
      "type": "function"
    },
    {
      "inputs": [],
      "name": "withdrawAuctionBalances",
      "outputs": [],
      "stateMutability": "nonpayable",
      "type": "function"
    },
    {
      "stateMutability": "payable",
      "type": "receive"
    },
    {
      "inputs": [
        {
          "internalType": "address",
          "name": "_v2Address",
          "type": "address"
        }
      ],
      "name": "setNewAddress",
      "outputs": [],
      "stateMutability": "nonpayable",
      "type": "function"
    },
    {
      "inputs": [
        {
          "internalType": "uint256",
          "name": "_id",
          "type": "uint256"
        }
      ],
      "name": "getHauntoo",
      "outputs": [
        {
          "internalType": "bool",
          "name": "isGestating",
          "type": "bool"
        },
        {
          "internalType": "bool",
          "name": "isReady",
          "type": "bool"
        },
        {
          "internalType": "uint256",
          "name": "cooldownIndex",
          "type": "uint256"
        },
        {
          "internalType": "uint256",
          "name": "nextActionAt",
          "type": "uint256"
        },
        {
          "internalType": "uint256",
          "name": "siringWithId",
          "type": "uint256"
        },
        {
          "internalType": "uint256",
          "name": "birthTime",
          "type": "uint256"
        },
        {
          "internalType": "uint256",
          "name": "matronId",
          "type": "uint256"
        },
        {
          "internalType": "uint256",
          "name": "sireId",
          "type": "uint256"
        },
        {
          "internalType": "uint256",
          "name": "generation",
          "type": "uint256"
        },
        {
          "internalType": "uint256",
          "name": "genes",
          "type": "uint256"
        }
      ],
      "stateMutability": "view",
      "type": "function"
    },
    {
      "inputs": [],
      "name": "unpause",
      "outputs": [],
      "stateMutability": "nonpayable",
      "type": "function"
    },
    {
      "inputs": [],
      "name": "withdrawBalance",
      "outputs": [],
      "stateMutability": "nonpayable",
      "type": "function"
    }
  ],
  "bytecode": "0x610240604052603c6080908152607860a05261012c60c05261025860e05261070861010052610e1061012052611c2061014052613840610160526170806101805261e1006101a052620151806101c0526202a3006101e052620546006102005262093a80610220526200007790600b90600e620009b6565b50600f600d5566071afd498d00006010553480156200009557600080fd5b5060408051808201825260088152674861756e746f6f7360c01b60208083019182528351808501909452600384526248544f60e81b908401528151919291620000e19160009162000a59565b508051620000f790600190602084019062000a59565b505050620001146200010e6200014260201b60201c565b62000146565b600a805460ff60a01b191690556200012b62000198565b6200013b6000808080806200024b565b5062000b96565b3390565b600a80546001600160a01b038381166001600160a01b0319831681179093556040519116919082907f8be0079c531659141344cd1fd0a4f28419497f9722a3daafe3b4186f6b6457e090600090a35050565b620001ac600a54600160a01b900460ff1690565b15620001f25760405162461bcd60e51b815260206004820152601060248201526f14185d5cd8589b194e881c185d5cd95960821b60448201526064015b60405180910390fd5b600a805460ff60a01b1916600160a01b1790557f62e78cea01bee320cd4e420270b5ea74000d11b0c9f74754ebdbfc544b05a2586200022e3390565b6040516001600160a01b03909116815260200160405180910390a1565b60008563ffffffff1686146200026057600080fd5b8463ffffffff1685146200027357600080fd5b8361ffff1684146200028457600080fd5b60006200029360028662000b08565b9050600d8161ffff161115620002a75750600d5b6000620002b360085490565b620002c090600162000aed565b9050604051806101000160405280868152602001426001600160401b0316815260200160006001600160401b031681526020018963ffffffff1681526020018863ffffffff168152602001600063ffffffff1681526020018361ffff1681526020018761ffff16815250600e60008381526020019081526020016000206000820151816000015560208201518160010160006101000a8154816001600160401b0302191690836001600160401b0316021790555060408201518160010160086101000a8154816001600160401b0302191690836001600160401b0316021790555060608201518160010160106101000a81548163ffffffff021916908363ffffffff16021790555060808201518160010160146101000a81548163ffffffff021916908363ffffffff16021790555060a08201518160010160186101000a81548163ffffffff021916908363ffffffff16021790555060c082015181600101601c6101000a81548161ffff021916908361ffff16021790555060e082015181600101601e6101000a81548161ffff021916908361ffff1602179055509050508063ffffffff1681146200047257600080fd5b6000818152600e60209081526040918290206001810154905483516001600160a01b0389168152928301859052600160801b820463ffffffff90811684860152600160a01b9092049091166060830152608082015290517f0a5311bd2a6608f08a180df2ee7c5946819a649b204b554bb8e39825b2c50ad59181900360a00190a16001600160a01b038416156200050f576200050f84826200051a565b979650505050505050565b6001600160a01b038216620005725760405162461bcd60e51b815260206004820181905260248201527f4552433732313a206d696e7420746f20746865207a65726f20616464726573736044820152606401620001e9565b6000818152600260205260409020546001600160a01b031615620005d95760405162461bcd60e51b815260206004820152601c60248201527f4552433732313a20746f6b656e20616c7265616479206d696e746564000000006044820152606401620001e9565b620005e76000838362000670565b6001600160a01b03821660009081526003602052604081208054600192906200061290849062000aed565b909155505060008181526002602052604080822080546001600160a01b0319166001600160a01b03861690811790915590518392907fddf252ad1be2c89b69c2b068fc378daa952ba7f163c4a11628f55a4df523b3ef908290a45050565b620006888383836200072660201b62000e8b1760201c565b6001600160a01b038316620006e657620006e081600880546000838152600960205260408120829055600182018355919091527ff3f7a9fe364faab93b216da50a3214154f22a0a2b415b23a84c8169e8b636ee30155565b6200070c565b816001600160a01b0316836001600160a01b0316146200070c576200070c838262000751565b6001600160a01b0382166200072b576200072681620007fe565b505050565b826001600160a01b0316826001600160a01b0316146200072657620007268282620008dc565b600060016200076b846200092d60201b620017331760201c565b62000777919062000b29565b600083815260076020526040902054909150808214620007cb576001600160a01b03841660009081526006602090815260408083208584528252808320548484528184208190558352600790915290208190555b5060009182526007602090815260408084208490556001600160a01b039094168352600681528383209183525290812055565b600854600090620008129060019062000b29565b600083815260096020526040812054600880549394509092849081106200084957634e487b7160e01b600052603260045260246000fd5b9060005260206000200154905080600883815481106200087957634e487b7160e01b600052603260045260246000fd5b6000918252602080832090910192909255828152600990915260408082208490558582528120556008805480620008c057634e487b7160e01b600052603160045260246000fd5b6001900381819060005260206000200160009055905550505050565b6000620008f4836200092d60201b620017331760201c565b6001600160a01b039093166000908152600660209081526040808320868452825280832085905593825260079052919091209190915550565b60006001600160a01b0382166200099a5760405162461bcd60e51b815260206004820152602a60248201527f4552433732313a2062616c616e636520717565727920666f7220746865207a65604482015269726f206164647265737360b01b6064820152608401620001e9565b506001600160a01b031660009081526003602052604090205490565b60028301918390821562000a475791602002820160005b8382111562000a1357835183826101000a81548163ffffffff021916908363ffffffff1602179055509260200192600401602081600301049283019260010302620009cd565b801562000a455782816101000a81549063ffffffff021916905560040160208160030104928301926001030262000a13565b505b5062000a5592915062000ad6565b5090565b82805462000a679062000b43565b90600052602060002090601f01602090048101928262000a8b576000855562000a47565b82601f1062000aa657805160ff191683800117855562000a47565b8280016001018555821562000a47579182015b8281111562000a4757825182559160200191906001019062000ab9565b5b8082111562000a55576000815560010162000ad7565b6000821982111562000b035762000b0362000b80565b500190565b60008262000b2457634e487b7160e01b81526012600452602481fd5b500490565b60008282101562000b3e5762000b3e62000b80565b500390565b600181811c9082168062000b5857607f821691505b6020821081141562000b7a57634e487b7160e01b600052602260045260246000fd5b50919050565b634e487b7160e01b600052601160045260246000fd5b613b238062000ba66000396000f3fe60806040526004361061037a5760003560e01c80635fd8c710116101d15780639d6fac6f11610102578063defb9584116100a0578063f1ca94101161006f578063f1ca941014610bba578063f2b47d5214610bd0578063f2fde38b14610bf0578063f7d8c88314610c1057610381565b8063defb958414610b28578063e6cbe35114610b3e578063e985e9c514610b5e578063ed60ade614610ba757610381565b8063b88d4fde116100dc578063b88d4fde14610aa8578063c3bea9af14610ac8578063c87b56dd14610ae8578063d3e6f49f14610b0857610381565b80639d6fac6f14610a3d578063a22cb46514610a72578063b0c35c0514610a9257610381565b8063715879881161016f5780638da5cb5b116101495780638da5cb5b146109d55780638df38033146109f357806391876e5714610a1357806395d89b4114610a2857610381565b8063715879881461097f5780637a7d49371461099f57806388c2a0bf146109b557610381565b80636af04a57116101ab5780636af04a571461090a5780636fbde40d1461092a57806370a082311461094a578063715018a61461096a57610381565b80635fd8c710146108bf5780636352211e146108d4578063680eba27146108f457610381565b80632f745c59116102ab57806347e5e6c7116102495780634dfff04f116102235780634dfff04f146108405780634f6ccce7146108605780635663896e146108805780635c975abb146108a057610381565b806347e5e6c7146107ea5780634ad8c938146108005780634b85fd551461082057610381565b80633f4ba83a116102855780633f4ba83a1461075f57806342842e0e1461077457806346116e6f1461079457806346d22c70146107ca57610381565b80632f745c5914610646578063341e1bbd146106665780633d7d3f5a1461073f57610381565b806314001f4c1161031857806319c2f201116102f257806319c2f201146105cf57806321717ebf146105e657806323b872dd1461060657806324e7a38a1461062657610381565b806314001f4c1461057a57806318160ddd1461059a5780631940a936146105af57610381565b806306fdde031161035457806306fdde03146104e4578063081812fc14610506578063095ea7b31461053e5780630e583df01461055e57610381565b806301ffc9a7146103af57806304fe6372146103e457806305e45546146104c057610381565b3661038157005b6013546001600160a01b03163314806103a457506014546001600160a01b031633145b6103ad57600080fd5b005b3480156103bb57600080fd5b506103cf6103ca366004613650565b610c23565b60405190151581526020015b60405180910390f35b3480156103f057600080fd5b506104746103ff366004613688565b6000908152600e602052604090206001810154905463ffffffff600160c01b8304811680151594436001600160401b03600160401b87048116918211159661ffff600160e01b8204811697939692821694600160801b8304841694600160a01b840490941693600160f01b9093049091169190565b604080519a15158b5298151560208b0152978901969096526060880194909452608087019290925260a086015260c085015260e0840152610100830152610120820152610140016103db565b3480156104cc57600080fd5b506104d660155481565b6040519081526020016103db565b3480156104f057600080fd5b506104f9610c4e565b6040516103db91906137c4565b34801561051257600080fd5b50610526610521366004613688565b610ce0565b6040516001600160a01b0390911681526020016103db565b34801561054a57600080fd5b506103ad61055936600461360b565b610d7a565b34801561056a57600080fd5b506104d6674563918244f4000081565b34801561058657600080fd5b506103ad61059536600461347a565b610e90565b3480156105a657600080fd5b506008546104d6565b3480156105bb57600080fd5b506103cf6105ca366004613688565b610f5e565b3480156105db57600080fd5b506104d66201518081565b3480156105f257600080fd5b50601454610526906001600160a01b031681565b34801561061257600080fd5b506103ad6106213660046134c6565b610f91565b34801561063257600080fd5b506103ad61064136600461347a565b610fc2565b34801561065257600080fd5b506104d661066136600461360b565b61108e565b34801561067257600080fd5b506106e8610681366004613688565b600e60205260009081526040902080546001909101546001600160401b0380821691600160401b81049091169063ffffffff600160801b8204811691600160a01b8104821691600160c01b8204169061ffff600160e01b8204811691600160f01b90041688565b604080519889526001600160401b0397881660208a0152969095169587019590955263ffffffff928316606087015290821660808601521660a084015261ffff91821660c08401521660e0820152610100016103db565b34801561074b57600080fd5b506103ad61075a3660046136fb565b611124565b34801561076b57600080fd5b506103ad611204565b34801561078057600080fd5b506103ad61078f3660046134c6565b6112b6565b3480156107a057600080fd5b506105266107af366004613688565b600f602052600090815260409020546001600160a01b031681565b3480156107d657600080fd5b506103cf6107e53660046136da565b6112d1565b3480156107f657600080fd5b506104d660115481565b34801561080c57600080fd5b506103ad61081b3660046136fb565b611326565b34801561082c57600080fd5b506103ad61083b366004613688565b6113cd565b34801561084c57600080fd5b506103ad61085b36600461360b565b6113fc565b34801561086c57600080fd5b506104d661087b366004613688565b611471565b34801561088c57600080fd5b506103ad61089b366004613688565b611512565b3480156108ac57600080fd5b50600a54600160a01b900460ff166103cf565b3480156108cb57600080fd5b506103ad611555565b3480156108e057600080fd5b506105266108ef366004613688565b6115ee565b34801561090057600080fd5b506104d661afc881565b34801561091657600080fd5b50601754610526906001600160a01b031681565b34801561093657600080fd5b506103ad61094536600461347a565b611665565b34801561095657600080fd5b506104d661096536600461347a565b611733565b34801561097657600080fd5b506103ad6117ba565b34801561098b57600080fd5b506103ad61099a36600461347a565b6117ee565b3480156109ab57600080fd5b506104d6600d5481565b3480156109c157600080fd5b506104d66109d0366004613688565b611863565b3480156109e157600080fd5b50600a546001600160a01b0316610526565b3480156109ff57600080fd5b506103ad610a0e3660046136b8565b611a8f565b348015610a1f57600080fd5b506103ad611b10565b348015610a3457600080fd5b506104f9611c06565b348015610a4957600080fd5b50610a5d610a58366004613688565b611c15565b60405163ffffffff90911681526020016103db565b348015610a7e57600080fd5b506103ad610a8d3660046135d5565b611c45565b348015610a9e57600080fd5b506104d660105481565b348015610ab457600080fd5b506103ad610ac3366004613501565b611d0a565b348015610ad457600080fd5b506103ad610ae3366004613688565b611d3c565b348015610af457600080fd5b506104f9610b03366004613688565b611e2d565b348015610b1457600080fd5b506103cf610b23366004613688565b611f15565b348015610b3457600080fd5b506104d661138881565b348015610b4a57600080fd5b50601354610526906001600160a01b031681565b348015610b6a57600080fd5b506103cf610b79366004613494565b6001600160a01b03918216600090815260056020908152604080832093909416825291909152205460ff1690565b6103ad610bb53660046136da565b611f3a565b348015610bc657600080fd5b506104d660165481565b348015610bdc57600080fd5b50601254610526906001600160a01b031681565b348015610bfc57600080fd5b506103ad610c0b36600461347a565b6120c8565b6103ad610c1e3660046136da565b612163565b60006001600160e01b0319821663780e9d6360e01b1480610c485750610c488261222b565b92915050565b606060008054610c5d90613a1d565b80601f0160208091040260200160405190810160405280929190818152602001828054610c8990613a1d565b8015610cd65780601f10610cab57610100808354040283529160200191610cd6565b820191906000526020600020905b815481529060010190602001808311610cb957829003601f168201915b5050505050905090565b6000818152600260205260408120546001600160a01b0316610d5e5760405162461bcd60e51b815260206004820152602c60248201527f4552433732313a20617070726f76656420717565727920666f72206e6f6e657860448201526b34b9ba32b73a103a37b5b2b760a11b60648201526084015b60405180910390fd5b506000908152600460205260409020546001600160a01b031690565b6000610d85826115ee565b9050806001600160a01b0316836001600160a01b03161415610df35760405162461bcd60e51b815260206004820152602160248201527f4552433732313a20617070726f76616c20746f2063757272656e74206f776e656044820152603960f91b6064820152608401610d55565b336001600160a01b0382161480610e0f5750610e0f8133610b79565b610e815760405162461bcd60e51b815260206004820152603860248201527f4552433732313a20617070726f76652063616c6c6572206973206e6f74206f7760448201527f6e6572206e6f7220617070726f76656420666f7220616c6c00000000000000006064820152608401610d55565b610e8b838361227b565b505050565b600a546001600160a01b03163314610eba5760405162461bcd60e51b8152600401610d5590613881565b6000819050806001600160a01b03166376190f8f6040518163ffffffff1660e01b8152600401602060405180830381600087803b158015610efa57600080fd5b505af1158015610f0e573d6000803e3d6000fd5b505050506040513d601f19601f82011682018060405250810190610f329190613634565b610f3b57600080fd5b601480546001600160a01b0319166001600160a01b039290921691909117905550565b6000808211610f6c57600080fd5b506000908152600e6020526040902060010154600160c01b900463ffffffff16151590565b610f9b33826122e9565b610fb75760405162461bcd60e51b8152600401610d55906138b6565b610e8b8383836123e0565b600a546001600160a01b03163314610fec5760405162461bcd60e51b8152600401610d5590613881565b6000819050806001600160a01b03166354c15b826040518163ffffffff1660e01b815260040160206040518083038186803b15801561102a57600080fd5b505afa15801561103e573d6000803e3d6000fd5b505050506040513d601f19601f820116820180604052508101906110629190613634565b61106b57600080fd5b601280546001600160a01b0319166001600160a01b039290921691909117905550565b600061109983611733565b82106110fb5760405162461bcd60e51b815260206004820152602b60248201527f455243373231456e756d657261626c653a206f776e657220696e646578206f7560448201526a74206f6620626f756e647360a81b6064820152608401610d55565b506001600160a01b03919091166000908152600660209081526040808320938352929052205490565b600a54600160a01b900460ff161561114e5760405162461bcd60e51b8152600401610d5590613857565b33611158856115ee565b6001600160a01b03161461116b57600080fd5b61117484610f5e565b1561117e57600080fd5b601354611194906001600160a01b031685610d7a565b6013546040516313f5f20560e11b81526001600160a01b03909116906327ebe40a906111cc9087908790879087903390600401613907565b600060405180830381600087803b1580156111e657600080fd5b505af11580156111fa573d6000803e3d6000fd5b5050505050505050565b600a546001600160a01b0316331461122e5760405162461bcd60e51b8152600401610d5590613881565b600a54600160a01b900460ff166112575760405162461bcd60e51b8152600401610d55906137d7565b6013546001600160a01b031661126c57600080fd5b6014546001600160a01b031661128157600080fd5b6012546001600160a01b031661129657600080fd5b6017546001600160a01b0316156112ac57600080fd5b6112b461258b565b565b610e8b83838360405180602001604052806000815250611d0a565b60008083116112df57600080fd5b600082116112ec57600080fd5b6000838152600e6020526040808220848352912061130c828683876125f6565b801561131d575061131d8486612775565b95945050505050565b600a54600160a01b900460ff16156113505760405162461bcd60e51b8152600401610d5590613857565b3361135a856115ee565b6001600160a01b03161461136d57600080fd5b61137684611f15565b61137f57600080fd5b601454611395906001600160a01b031685610d7a565b6014546040516313f5f20560e11b81526001600160a01b03909116906327ebe40a906111cc9087908790879087903390600401613907565b600a546001600160a01b031633146113f75760405162461bcd60e51b8152600401610d5590613881565b601055565b600a54600160a01b900460ff16156114265760405162461bcd60e51b8152600401610d5590613857565b33611430826115ee565b6001600160a01b03161461144357600080fd5b6000908152600f6020526040902080546001600160a01b0319166001600160a01b0392909216919091179055565b600061147c60085490565b82106114df5760405162461bcd60e51b815260206004820152602c60248201527f455243373231456e756d657261626c653a20676c6f62616c20696e646578206f60448201526b7574206f6620626f756e647360a01b6064820152608401610d55565b6008828154811061150057634e487b7160e01b600052603260045260246000fd5b90600052602060002001549050919050565b600a546001600160a01b0316331461153c5760405162461bcd60e51b8152600401610d5590613881565b600b5463ffffffff16811061155057600080fd5b600d55565b600a546001600160a01b0316331461157f5760405162461bcd60e51b8152600401610d5590613881565b6010546011544791600091611595906001613950565b61159f919061397c565b9050808211156115ea57600a546001600160a01b03166108fc6115c2838561399b565b6040518115909202916000818181858888f19350505050158015610e8b573d6000803e3d6000fd5b5050565b6000818152600260205260408120546001600160a01b031680610c485760405162461bcd60e51b815260206004820152602960248201527f4552433732313a206f776e657220717565727920666f72206e6f6e657869737460448201526832b73a103a37b5b2b760b91b6064820152608401610d55565b600a546001600160a01b0316331461168f5760405162461bcd60e51b8152600401610d5590613881565b6000819050806001600160a01b03166385b861886040518163ffffffff1660e01b8152600401602060405180830381600087803b1580156116cf57600080fd5b505af11580156116e3573d6000803e3d6000fd5b505050506040513d601f19601f820116820180604052508101906117079190613634565b61171057600080fd5b601380546001600160a01b0319166001600160a01b039290921691909117905550565b60006001600160a01b03821661179e5760405162461bcd60e51b815260206004820152602a60248201527f4552433732313a2062616c616e636520717565727920666f7220746865207a65604482015269726f206164647265737360b01b6064820152608401610d55565b506001600160a01b031660009081526003602052604090205490565b600a546001600160a01b031633146117e45760405162461bcd60e51b8152600401610d5590613881565b6112b460006127d3565b600a546001600160a01b031633146118185760405162461bcd60e51b8152600401610d5590613881565b600a54600160a01b900460ff166118415760405162461bcd60e51b8152600401610d55906137d7565b601780546001600160a01b0319166001600160a01b0392909216919091179055565b600a54600090600160a01b900460ff16156118905760405162461bcd60e51b8152600401610d5590613857565b6000828152600e6020526040902060018101546001600160401b03166118b557600080fd5b6118be81612825565b6118c757600080fd5b60018082015463ffffffff600160c01b8204166000818152600e602052604090209283015490929161ffff600160f01b91829004811692919091041681101561191c57506001810154600160f01b900461ffff165b601254845483546001808801546000946001600160a01b031693630d9f5aed939092909161195a9190600160401b90046001600160401b03166139b2565b6040516001600160e01b031960e086901b168152600481019390935260248301919091526001600160401b03166044820152606401602060405180830381600087803b1580156119a957600080fd5b505af11580156119bd573d6000803e3d6000fd5b505050506040513d601f19601f820116820180604052508101906119e191906136a0565b905060006119ee886115ee565b90506000611a29898860010160189054906101000a900463ffffffff1663ffffffff16866001611a1e9190613933565b61ffff168686612861565b60018801805463ffffffff60c01b19169055601180549192506000611a4d83613a06565b9091555050601054604051339180156108fc02916000818181858888f19350505050158015611a80573d6000803e3d6000fd5b5096505050505050505b919050565b600a546001600160a01b03163314611ab95760405162461bcd60e51b8152600401610d5590613881565b806001600160a01b038116611ad65750600a546001600160a01b03165b61138860155410611ae657600080fd5b60158054906000611af683613a58565b9190505550611b0a60008060008685612861565b50505050565b600a546001600160a01b03163314611b3a5760405162461bcd60e51b8152600401610d5590613881565b601360009054906101000a90046001600160a01b03166001600160a01b0316635fd8c7106040518163ffffffff1660e01b8152600401600060405180830381600087803b158015611b8a57600080fd5b505af1158015611b9e573d6000803e3d6000fd5b50505050601460009054906101000a90046001600160a01b03166001600160a01b0316635fd8c7106040518163ffffffff1660e01b8152600401600060405180830381600087803b158015611bf257600080fd5b505af1158015611b0a573d6000803e3d6000fd5b606060018054610c5d90613a1d565b600b81600e8110611c2557600080fd5b60089182820401919006600402915054906101000a900463ffffffff1681565b6001600160a01b038216331415611c9e5760405162461bcd60e51b815260206004820152601960248201527f4552433732313a20617070726f766520746f2063616c6c6572000000000000006044820152606401610d55565b3360008181526005602090815260408083206001600160a01b03871680855290835292819020805460ff191686151590811790915590519081529192917f17307eab39ab6107e8899845ad3d59bd9653f200f220920489ca2b5937696c31910160405180910390a35050565b611d1433836122e9565b611d305760405162461bcd60e51b8152600401610d55906138b6565b611b0a84848484612b23565b600a546001600160a01b03163314611d665760405162461bcd60e51b8152600401610d5590613881565b61afc860165410611d7657600080fd5b6000611d8760008060008530612861565b601354909150611da0906001600160a01b03168261227b565b6013546001600160a01b03166327ebe40a82611dba612b56565b600062015180306040518663ffffffff1660e01b8152600401611de1959493929190613907565b600060405180830381600087803b158015611dfb57600080fd5b505af1158015611e0f573d6000803e3d6000fd5b505060168054925090506000611e2483613a58565b91905055505050565b6000818152600260205260409020546060906001600160a01b0316611eac5760405162461bcd60e51b815260206004820152602f60248201527f4552433732314d657461646174613a2055524920717565727920666f72206e6f60448201526e3732bc34b9ba32b73a103a37b5b2b760891b6064820152608401610d55565b6000611ec360408051602081019091526000815290565b90506000815111611ee35760405180602001604052806000815250611f0e565b80611eed84612c38565b604051602001611efe929190613758565b6040516020818303038152906040525b9392505050565b6000808211611f2357600080fd5b6000828152600e60205260409020611f0e81612d51565b600a54600160a01b900460ff1615611f645760405162461bcd60e51b8152600401610d5590613857565b33611f6e826115ee565b6001600160a01b031614611f8157600080fd5b611f8a81611f15565b611f9357600080fd5b611f9d8183612d8c565b611fa657600080fd5b6014546040516362ae87ab60e11b8152600481018490526000916001600160a01b03169063c55d0f569060240160206040518083038186803b158015611feb57600080fd5b505afa158015611fff573d6000803e3d6000fd5b505050506040513d601f19601f8201168201806040525081019061202391906136a0565b9050601054816120339190613950565b34101561203f57600080fd5b6014546010546001600160a01b039091169063454a2ab390612061903461399b565b856040518363ffffffff1660e01b815260040161208091815260200190565b6000604051808303818588803b15801561209957600080fd5b505af11580156120ad573d6000803e3d6000fd5b5050505050610e8b8263ffffffff168463ffffffff16612dad565b600a546001600160a01b031633146120f25760405162461bcd60e51b8152600401610d5590613881565b6001600160a01b0381166121575760405162461bcd60e51b815260206004820152602660248201527f4f776e61626c653a206e6577206f776e657220697320746865207a65726f206160448201526564647265737360d01b6064820152608401610d55565b612160816127d3565b50565b600a54600160a01b900460ff161561218d5760405162461bcd60e51b8152600401610d5590613857565b60105434101561219c57600080fd5b336121a6836115ee565b6001600160a01b0316146121b957600080fd5b6121c38183612775565b6121cc57600080fd5b6000828152600e602052604090206121e381612d51565b6121ec57600080fd5b6000828152600e6020526040902061220381612d51565b61220c57600080fd5b612218828583866125f6565b61222157600080fd5b611b0a8484612dad565b60006001600160e01b031982166380ac58cd60e01b148061225c57506001600160e01b03198216635b5e139f60e01b145b80610c4857506301ffc9a760e01b6001600160e01b0319831614610c48565b600081815260046020526040902080546001600160a01b0319166001600160a01b03841690811790915581906122b0826115ee565b6001600160a01b03167f8c5be1e5ebec7d5bd14f71427d1e84f3dd0314c0f7b2291e5b200ac8c7c3b92560405160405180910390a45050565b6000818152600260205260408120546001600160a01b03166123625760405162461bcd60e51b815260206004820152602c60248201527f4552433732313a206f70657261746f7220717565727920666f72206e6f6e657860448201526b34b9ba32b73a103a37b5b2b760a11b6064820152608401610d55565b600061236d836115ee565b9050806001600160a01b0316846001600160a01b031614806123a85750836001600160a01b031661239d84610ce0565b6001600160a01b0316145b806123d857506001600160a01b0380821660009081526005602090815260408083209388168352929052205460ff165b949350505050565b826001600160a01b03166123f3826115ee565b6001600160a01b03161461245b5760405162461bcd60e51b815260206004820152602960248201527f4552433732313a207472616e73666572206f6620746f6b656e2074686174206960448201526839903737ba1037bbb760b91b6064820152608401610d55565b6001600160a01b0382166124bd5760405162461bcd60e51b8152602060048201526024808201527f4552433732313a207472616e7366657220746f20746865207a65726f206164646044820152637265737360e01b6064820152608401610d55565b6124c8838383612ea5565b6124d360008261227b565b6001600160a01b03831660009081526003602052604081208054600192906124fc90849061399b565b90915550506001600160a01b038216600090815260036020526040812080546001929061252a908490613950565b909155505060008181526002602052604080822080546001600160a01b0319166001600160a01b0386811691821790925591518493918716917fddf252ad1be2c89b69c2b068fc378daa952ba7f163c4a11628f55a4df523b3ef91a4505050565b600a54600160a01b900460ff166125b45760405162461bcd60e51b8152600401610d55906137d7565b600a805460ff60a01b191690556040805133815290517f5db9ee0a495bf2e6ff9c91a7834c1ba4fdd244a5e8aa4e537bd38aeae4b073aa9181900360200190a1565b600081841415612608575060006123d8565b6001850154600160801b900463ffffffff1682148061263757506001850154600160a01b900463ffffffff1682145b15612644575060006123d8565b6001830154600160801b900463ffffffff1684148061267357506001830154600160a01b900463ffffffff1684145b15612680575060006123d8565b6001830154600160801b900463ffffffff1615806126ad57506001850154600160801b900463ffffffff16155b156126ba575060016123d8565b60018581015490840154600160801b9182900463ffffffff90811692909104161480612705575060018086015490840154600160801b900463ffffffff908116600160a01b90920416145b15612712575060006123d8565b60018086015490840154600160a01b900463ffffffff908116600160801b90920416148061275d575060018581015490840154600160a01b9182900463ffffffff9081169290910416145b1561276a575060006123d8565b506001949350505050565b600080612781836115ee565b9050600061278e856115ee565b9050806001600160a01b0316826001600160a01b0316148061131d57506000858152600f60205260409020546001600160a01b03908116908316149250505092915050565b600a80546001600160a01b038381166001600160a01b0319831681179093556040519116919082907f8be0079c531659141344cd1fd0a4f28419497f9722a3daafe3b4186f6b6457e090600090a35050565b6001810154600090600160c01b900463ffffffff1615801590610c48575050600101546001600160401b03438116600160401b90920416111590565b60008563ffffffff16861461287557600080fd5b8463ffffffff16851461288757600080fd5b8361ffff16841461289757600080fd5b60006128a4600286613968565b9050600d8161ffff1611156128b75750600d5b60006128c260085490565b6128cd906001613950565b9050604051806101000160405280868152602001426001600160401b0316815260200160006001600160401b031681526020018963ffffffff1681526020018863ffffffff168152602001600063ffffffff1681526020018361ffff1681526020018761ffff16815250600e60008381526020019081526020016000206000820151816000015560208201518160010160006101000a8154816001600160401b0302191690836001600160401b0316021790555060408201518160010160086101000a8154816001600160401b0302191690836001600160401b0316021790555060608201518160010160106101000a81548163ffffffff021916908363ffffffff16021790555060808201518160010160146101000a81548163ffffffff021916908363ffffffff16021790555060a08201518160010160186101000a81548163ffffffff021916908363ffffffff16021790555060c082015181600101601c6101000a81548161ffff021916908361ffff16021790555060e082015181600101601e6101000a81548161ffff021916908361ffff1602179055509050508063ffffffff168114612a7e57600080fd5b6000818152600e60209081526040918290206001810154905483516001600160a01b0389168152928301859052600160801b820463ffffffff90811684860152600160a01b9092049091166060830152608082015290517f0a5311bd2a6608f08a180df2ee7c5946819a649b204b554bb8e39825b2c50ad59181900360a00190a16001600160a01b03841615612b1857612b188482612f5d565b979650505050505050565b612b2e8484846123e0565b612b3a848484846130ab565b611b0a5760405162461bcd60e51b8152600401610d5590613805565b600080601360009054906101000a90046001600160a01b03166001600160a01b031663eac9d94c6040518163ffffffff1660e01b815260040160206040518083038186803b158015612ba757600080fd5b505afa158015612bbb573d6000803e3d6000fd5b505050506040513d601f19601f82011682018060405250810190612bdf91906136a0565b9050806fffffffffffffffffffffffffffffffff168114612bff57600080fd5b6000612c0c600283613968565b612c169083613950565b9050674563918244f40000811015610c485750674563918244f4000092915050565b606081612c5c5750506040805180820190915260018152600360fc1b602082015290565b8160005b8115612c865780612c7081613a58565b9150612c7f9050600a83613968565b9150612c60565b6000816001600160401b03811115612cae57634e487b7160e01b600052604160045260246000fd5b6040519080825280601f01601f191660200182016040528015612cd8576020820181803683370190505b5090505b84156123d857612ced60018361399b565b9150612cfa600a86613a73565b612d05906030613950565b60f81b818381518110612d2857634e487b7160e01b600052603260045260246000fd5b60200101906001600160f81b031916908160001a905350612d4a600a86613968565b9450612cdc565b6001810154600090600160c01b900463ffffffff16158015610c48575050600101546001600160401b03438116600160401b90920416111590565b6000828152600e602052604080822083835290822061131d828683876125f6565b6000818152600e6020526040808220848352912060018101805463ffffffff60c01b1916600160c01b63ffffffff861602179055612dea826131b5565b612df3816131b5565b6000848152600f602052604080822080546001600160a01b0319908116909155858352908220805490911690556011805491612e2e83613a58565b91905055507f241ea03ca20251805084d27d4440371c34a0b85ff108f6bb5611248f73818b80612e5d856115ee565b6001830154604080516001600160a01b039093168352602083018890528201869052600160401b90046001600160401b0316606082015260800160405180910390a150505050565b6001600160a01b038316612f0057612efb81600880546000838152600960205260408120829055600182018355919091527ff3f7a9fe364faab93b216da50a3214154f22a0a2b415b23a84c8169e8b636ee30155565b612f23565b816001600160a01b0316836001600160a01b031614612f2357612f2383826132a9565b6001600160a01b038216612f3a57610e8b81613346565b826001600160a01b0316826001600160a01b031614610e8b57610e8b828261341f565b6001600160a01b038216612fb35760405162461bcd60e51b815260206004820181905260248201527f4552433732313a206d696e7420746f20746865207a65726f20616464726573736044820152606401610d55565b6000818152600260205260409020546001600160a01b0316156130185760405162461bcd60e51b815260206004820152601c60248201527f4552433732313a20746f6b656e20616c7265616479206d696e746564000000006044820152606401610d55565b61302460008383612ea5565b6001600160a01b038216600090815260036020526040812080546001929061304d908490613950565b909155505060008181526002602052604080822080546001600160a01b0319166001600160a01b03861690811790915590518392907fddf252ad1be2c89b69c2b068fc378daa952ba7f163c4a11628f55a4df523b3ef908290a45050565b60006001600160a01b0384163b156131ad57604051630a85bd0160e11b81526001600160a01b0385169063150b7a02906130ef903390899088908890600401613787565b602060405180830381600087803b15801561310957600080fd5b505af1925050508015613139575060408051601f3d908101601f191682019092526131369181019061366c565b60015b613193573d808015613167576040519150601f19603f3d011682016040523d82523d6000602084013e61316c565b606091505b50805161318b5760405162461bcd60e51b8152600401610d5590613805565b805181602001fd5b6001600160e01b031916630a85bd0160e11b1490506123d8565b5060016123d8565b600d546001820154439190600b90600160e01b900461ffff16600e81106131ec57634e487b7160e01b600052603260045260246000fd5b600891828204019190066004029054906101000a900463ffffffff1663ffffffff166132189190613968565b6132229190613950565b6001820180546fffffffffffffffff00000000000000001916600160401b6001600160401b0393909316929092029190911790819055600d600160e01b90910461ffff1610156121605760018181018054601c9061328c908490600160e01b900461ffff16613933565b92506101000a81548161ffff021916908361ffff16021790555050565b600060016132b684611733565b6132c0919061399b565b600083815260076020526040902054909150808214613313576001600160a01b03841660009081526006602090815260408083208584528252808320548484528184208190558352600790915290208190555b5060009182526007602090815260408084208490556001600160a01b039094168352600681528383209183525290812055565b6008546000906133589060019061399b565b6000838152600960205260408120546008805493945090928490811061338e57634e487b7160e01b600052603260045260246000fd5b9060005260206000200154905080600883815481106133bd57634e487b7160e01b600052603260045260246000fd5b600091825260208083209091019290925582815260099091526040808220849055858252812055600880548061340357634e487b7160e01b600052603160045260246000fd5b6001900381819060005260206000200160009055905550505050565b600061342a83611733565b6001600160a01b039093166000908152600660209081526040808320868452825280832085905593825260079052919091209190915550565b80356001600160a01b0381168114611a8a57600080fd5b60006020828403121561348b578081fd5b611f0e82613463565b600080604083850312156134a6578081fd5b6134af83613463565b91506134bd60208401613463565b90509250929050565b6000806000606084860312156134da578081fd5b6134e384613463565b92506134f160208501613463565b9150604084013590509250925092565b60008060008060808587031215613516578081fd5b61351f85613463565b935061352d60208601613463565b92506040850135915060608501356001600160401b038082111561354f578283fd5b818701915087601f830112613562578283fd5b81358181111561357457613574613ab3565b604051601f8201601f19908116603f0116810190838211818310171561359c5761359c613ab3565b816040528281528a60208487010111156135b4578586fd5b82602086016020830137918201602001949094529598949750929550505050565b600080604083850312156135e7578182fd5b6135f083613463565b9150602083013561360081613ac9565b809150509250929050565b6000806040838503121561361d578182fd5b61362683613463565b946020939093013593505050565b600060208284031215613645578081fd5b8151611f0e81613ac9565b600060208284031215613661578081fd5b8135611f0e81613ad7565b60006020828403121561367d578081fd5b8151611f0e81613ad7565b600060208284031215613699578081fd5b5035919050565b6000602082840312156136b1578081fd5b5051919050565b600080604083850312156136ca578182fd5b823591506134bd60208401613463565b600080604083850312156136ec578182fd5b50508035926020909101359150565b60008060008060808587031215613710578384fd5b5050823594602084013594506040840135936060013592509050565b600081518084526137448160208601602086016139da565b601f01601f19169290920160200192915050565b6000835161376a8184602088016139da565b83519083019061377e8183602088016139da565b01949350505050565b6001600160a01b03858116825284166020820152604081018390526080606082018190526000906137ba9083018461372c565b9695505050505050565b602081526000611f0e602083018461372c565b60208082526014908201527314185d5cd8589b194e881b9bdd081c185d5cd95960621b604082015260600190565b60208082526032908201527f4552433732313a207472616e7366657220746f206e6f6e20455243373231526560408201527131b2b4bb32b91034b6b83632b6b2b73a32b960711b606082015260800190565b60208082526010908201526f14185d5cd8589b194e881c185d5cd95960821b604082015260600190565b6020808252818101527f4f776e61626c653a2063616c6c6572206973206e6f7420746865206f776e6572604082015260600190565b60208082526031908201527f4552433732313a207472616e736665722063616c6c6572206973206e6f74206f6040820152701ddb995c881b9bdc88185c1c1c9bdd9959607a1b606082015260800190565b9485526020850193909352604084019190915260608301526001600160a01b0316608082015260a00190565b600061ffff80831681851680830382111561377e5761377e613a87565b6000821982111561396357613963613a87565b500190565b60008261397757613977613a9d565b500490565b600081600019048311821515161561399657613996613a87565b500290565b6000828210156139ad576139ad613a87565b500390565b60006001600160401b03838116908316818110156139d2576139d2613a87565b039392505050565b60005b838110156139f55781810151838201526020016139dd565b83811115611b0a5750506000910152565b600081613a1557613a15613a87565b506000190190565b600181811c90821680613a3157607f821691505b60208210811415613a5257634e487b7160e01b600052602260045260246000fd5b50919050565b6000600019821415613a6c57613a6c613a87565b5060010190565b600082613a8257613a82613a9d565b500690565b634e487b7160e01b600052601160045260246000fd5b634e487b7160e01b600052601260045260246000fd5b634e487b7160e01b600052604160045260246000fd5b801515811461216057600080fd5b6001600160e01b03198116811461216057600080fdfea2646970667358221220056e9bbf15e7d6afe256364f539375603783c0b2627c2fced9b33235c332211464736f6c63430008040033",
  "immutableReferences": {},
  "source": "// SPDX-License-Identifier: GPL-3.0\r\n\r\npragma solidity ^0.8.0;\r\n\r\nimport './HauntooMinting.sol';\r\n\r\n/// @title CryptoHauntoos: Collectible, breedable, and oh-so-adorable cats on the Ethereum blockchain.\r\n/// @author Axiom Zen (https://www.axiomzen.co)\r\n/// @dev The main CryptoHauntoos contract, keeps track of babys so they don't wander around and get lost.\r\ncontract HauntooCore is HauntooMinting {\r\n\r\n    // This is the main CryptoHauntoos contract. In order to keep our code seperated into logical sections,\r\n    // we've broken it up in two ways. First, we have several seperately-instantiated sibling contracts\r\n    // that handle auctions and our super-top-secret genetic combination algorithm. The auctions are\r\n    // seperate since their logic is somewhat complex and there's always a risk of subtle bugs. By keeping\r\n    // them in their own contracts, we can upgrade them without disrupting the main contract that tracks\r\n    // hauntoo ownership. The genetic combination algorithm is kept seperate so we can open-source all of\r\n    // the rest of our code without making it _too_ easy for folks to figure out how the genetics work.\r\n    // Don't worry, I'm sure someone will reverse engineer it soon enough!\r\n    //\r\n    // Secondly, we break the core contract into multiple files using inheritence, one for each major\r\n    // facet of functionality of CK. This allows us to keep related code bundled together while still\r\n    // avoiding a single giant file with everything in it. The breakdown is as follows:\r\n    //\r\n    //      - HauntooBase: This is where we define the most fundamental code shared throughout the core\r\n    //             functionality. This includes our main data storage, constants and data types, plus\r\n    //             internal functions for managing these items.\r\n    //\r\n    //      - HauntooBreeding: This file contains the methods necessary to breed cats together, including\r\n    //             keeping track of siring offers, and relies on an external genetic combination contract.\r\n    //\r\n    //      - HauntooAuctions: Here we have the public methods for auctioning or bidding on cats or siring\r\n    //             services. The actual auction functionality is handled in two sibling contracts (one\r\n    //             for sales and one for siring), while auction creation and bidding is mostly mediated\r\n    //             through this facet of the core contract.\r\n    //\r\n    //      - HauntooMinting: This final facet contains the functionality we use for creating new gen0 cats.\r\n    //             We can make up to 5000 \"promo\" cats that can be given away (especially important when\r\n    //             the community is new), and all others can only be created and then immediately put up\r\n    //             for auction via an algorithmically determined starting price. Regardless of how they\r\n    //             are created, there is a hard limit of 50k gen0 cats. After that, it's all up to the\r\n    //             community to breed, breed, breed!\r\n\r\n    // Set in case the core contract is broken and an upgrade is required\r\n    address public newContractAddress;\r\n\r\n    /// @notice Creates the main CryptoHauntoos smart contract instance.\r\n    constructor() ERC721(\"Hauntoos\", \"HTO\") {\r\n\r\n        // Starts paused.\r\n        // paused = true;\r\n        _pause();\r\n\r\n        // start with the mythical baby 0 - so we don't have generation-0 parent issues\r\n        _createHauntoo(0, 0, 0, uint256(0), address(0));\r\n    }\r\n\r\n    /// @dev Used to mark the smart contract as upgraded, in case there is a serious\r\n    ///  breaking bug. This method does nothing but keep track of the new contract and\r\n    ///  emit a message indicating that the new address is set. It's up to clients of this\r\n    ///  contract to update to the new contract address in that case. (This contract will\r\n    ///  be paused indefinitely if such an upgrade takes place.)\r\n    /// @param _v2Address new address\r\n    function setNewAddress(address _v2Address) external onlyOwner whenPaused {\r\n        // See README.md for updgrade plan\r\n        newContractAddress = _v2Address;\r\n        // ContractUpgrade(_v2Address);\r\n    }\r\n\r\n    /// @notice No tipping!\r\n    /// @dev Reject all Ether from being sent here, unless it's from one of the\r\n    ///  two auction contracts. (Hopefully, we can prevent user accidents.)\r\n    fallback() external payable {\r\n        require(\r\n            msg.sender == address(saleAuction) ||\r\n            msg.sender == address(siringAuction)\r\n        );\r\n    }\r\n\r\n    receive() external payable {\r\n        // emit Received(msg.sender, msg.value);\r\n    }\r\n\r\n    /// @notice Returns all the relevant information about a specific hauntoo.\r\n    /// @param _id The ID of the hauntoo of interest.\r\n    function getHauntoo(uint256 _id)\r\n        external\r\n        view\r\n        returns (\r\n        bool isGestating,\r\n        bool isReady,\r\n        uint256 cooldownIndex,\r\n        uint256 nextActionAt,\r\n        uint256 siringWithId,\r\n        uint256 birthTime,\r\n        uint256 matronId,\r\n        uint256 sireId,\r\n        uint256 generation,\r\n        uint256 genes\r\n    ) {\r\n        Hauntoo storage hto = hauntoos[_id];\r\n\r\n        // if this variable is 0 then it's not gestating\r\n        isGestating = (hto.siringWithId != 0);\r\n        isReady = (hto.cooldownEndBlock <= block.number);\r\n        cooldownIndex = uint256(hto.cooldownIndex);\r\n        nextActionAt = uint256(hto.cooldownEndBlock);\r\n        siringWithId = uint256(hto.siringWithId);\r\n        birthTime = uint256(hto.birthTime);\r\n        matronId = uint256(hto.matronId);\r\n        sireId = uint256(hto.sireId);\r\n        generation = uint256(hto.generation);\r\n        genes = hto.genes;\r\n    }\r\n\r\n    /// @dev Override unpause so it requires all external contract addresses\r\n    ///  to be set before contract can be unpaused. Also, we can't have\r\n    ///  newContractAddress set either, because then the contract was upgraded.\r\n    /// @notice This is public rather than external so we can call super.unpause\r\n    ///  without using an expensive CALL.\r\n    function unpause() public onlyOwner whenPaused {\r\n        require(address(saleAuction) != address(0));\r\n        require(address(siringAuction) != address(0));\r\n        require(address(geneScience) != address(0));\r\n        require(address(newContractAddress) == address(0));\r\n\r\n        // Actually unpause the contract.\r\n        _unpause();\r\n    }\r\n\r\n    // @dev Allows the CFO to capture the balance available to the contract.\r\n    function withdrawBalance() external onlyOwner {\r\n        uint256 balance = address(this).balance;\r\n        // Subtract all the currently pregnant babys we have, plus 1 of margin.\r\n        uint256 subtractFees = (pregnantHauntoos + 1) * autoBirthFee;\r\n\r\n        if (balance > subtractFees) {\r\n            payable(owner()).transfer(balance - subtractFees);\r\n        }\r\n    }\r\n}",
  "sourcePath": "D:\\WorkSpace\\blockchain\\CryptoWebsite\\Hauntoo_Contract\\contracts\\HauntooCore.sol",
  "compiler": {
    "name": "solc",
    "version": "0.8.4+commit.c7e474f2.Emscripten.clang"
  },
  "schemaVersion": "3.4.3",
  "updatedAt": "2021-10-01T21:32:54.459Z",
  "networkType": "ethereum",
  "devdoc": {
    "author": "Axiom Zen (https://www.axiomzen.co)",
    "details": "The main CryptoHauntoos contract, keeps track of babys so they don't wander around and get lost.",
    "kind": "dev",
    "methods": {
      "approve(address,uint256)": {
        "details": "See {IERC721-approve}."
      },
      "approveSiring(address,uint256)": {
        "params": {
          "_addr": "The address that will be able to sire with your Hauntoo. Set to  address(0) to clear all siring approvals for this Hauntoo.",
          "_sireId": "A Hauntoo that you own that _addr will now be able to sire with."
        }
      },
      "balanceOf(address)": {
        "details": "See {IERC721-balanceOf}."
      },
      "bidOnSiringAuction(uint256,uint256)": {
        "details": "Completes a siring auction by bidding.  Immediately breeds the winning matron with the sire on auction.",
        "params": {
          "_matronId": "- ID of the matron owned by the bidder.",
          "_sireId": "- ID of the sire on auction."
        }
      },
      "breedWithAuto(uint256,uint256)": {
        "params": {
          "_matronId": "The ID of the Hauntoo acting as matron (will end up pregnant if successful)",
          "_sireId": "The ID of the Hauntoo acting as sire (will begin its siring cooldown if successful)"
        }
      },
      "canBreedWith(uint256,uint256)": {
        "params": {
          "_matronId": "The ID of the proposed matron.",
          "_sireId": "The ID of the proposed sire."
        }
      },
      "createGen0Auction(uint256)": {
        "details": "Creates a new gen0 hauntoo with the given genes and  creates an auction for it."
      },
      "createPromoHauntoo(uint256,address)": {
        "details": "we can create promo babys, up to a limit. Only callable by owner",
        "params": {
          "_genes": "the encoded genes of the baby to be created, any value is accepted",
          "_owner": "the future owner of the created babys. Default to contract owner"
        }
      },
      "createSaleAuction(uint256,uint256,uint256,uint256)": {
        "details": "Put a hauntoo up for auction.  Does some ownership trickery to create auctions in one tx."
      },
      "createSiringAuction(uint256,uint256,uint256,uint256)": {
        "details": "Put a hauntoo up for auction to be sire.  Performs checks to ensure the hauntoo can be sired, then  delegates to reverse auction."
      },
      "getApproved(uint256)": {
        "details": "See {IERC721-getApproved}."
      },
      "getHauntoo(uint256)": {
        "params": {
          "_id": "The ID of the hauntoo of interest."
        }
      },
      "giveBirth(uint256)": {
        "details": "Looks at a given Hauntoo and, if pregnant and if the gestation period has passed,  combines the genes of the two parents to create a new baby. The new Hauntoo is assigned  to the current owner of the matron. Upon successful completion, both the matron and the  new baby will be ready to breed again. Note that anyone can call this function (if they  are willing to pay the gas!), but the new baby always goes to the mother's owner.",
        "params": {
          "_matronId": "A Hauntoo ready to give birth."
        },
        "returns": {
          "_0": "The Hauntoo ID of the new baby."
        }
      },
      "isApprovedForAll(address,address)": {
        "details": "See {IERC721-isApprovedForAll}."
      },
      "isPregnant(uint256)": {
        "details": "Checks whether a hauntoo is currently pregnant.",
        "params": {
          "_hauntooId": "reference the id of the baby, any user can inquire about it"
        }
      },
      "isReadyToBreed(uint256)": {
        "params": {
          "_hauntooId": "reference the id of the baby, any user can inquire about it"
        }
      },
      "name()": {
        "details": "See {IERC721Metadata-name}."
      },
      "owner()": {
        "details": "Returns the address of the current owner."
      },
      "ownerOf(uint256)": {
        "details": "See {IERC721-ownerOf}."
      },
      "paused()": {
        "details": "Returns true if the contract is paused, and false otherwise."
      },
      "renounceOwnership()": {
        "details": "Leaves the contract without owner. It will not be possible to call `onlyOwner` functions anymore. Can only be called by the current owner. NOTE: Renouncing ownership will leave the contract without an owner, thereby removing any functionality that is only available to the owner."
      },
      "safeTransferFrom(address,address,uint256)": {
        "details": "See {IERC721-safeTransferFrom}."
      },
      "safeTransferFrom(address,address,uint256,bytes)": {
        "details": "See {IERC721-safeTransferFrom}."
      },
      "setApprovalForAll(address,bool)": {
        "details": "See {IERC721-setApprovalForAll}."
      },
      "setAutoBirthFee(uint256)": {
        "details": "Updates the minimum payment required for calling giveBirthAuto(). Can only  be called by the COO address. (This fee is used to offset the gas cost incurred  by the autobirth daemon)."
      },
      "setGeneScienceAddress(address)": {
        "details": "Update the address of the genetic contract, can only be called by the CEO.",
        "params": {
          "_address": "An address of a GeneScience contract instance to be used from this point forward."
        }
      },
      "setNewAddress(address)": {
        "details": "Used to mark the smart contract as upgraded, in case there is a serious  breaking bug. This method does nothing but keep track of the new contract and  emit a message indicating that the new address is set. It's up to clients of this  contract to update to the new contract address in that case. (This contract will  be paused indefinitely if such an upgrade takes place.)",
        "params": {
          "_v2Address": "new address"
        }
      },
      "setSaleAuctionAddress(address)": {
        "details": "Sets the reference to the sale auction.",
        "params": {
          "_address": "- Address of sale contract."
        }
      },
      "setSiringAuctionAddress(address)": {
        "details": "Sets the reference to the siring auction.",
        "params": {
          "_address": "- Address of siring contract."
        }
      },
      "supportsInterface(bytes4)": {
        "details": "See {IERC165-supportsInterface}."
      },
      "symbol()": {
        "details": "See {IERC721Metadata-symbol}."
      },
      "tokenByIndex(uint256)": {
        "details": "See {IERC721Enumerable-tokenByIndex}."
      },
      "tokenOfOwnerByIndex(address,uint256)": {
        "details": "See {IERC721Enumerable-tokenOfOwnerByIndex}."
      },
      "tokenURI(uint256)": {
        "details": "See {IERC721Metadata-tokenURI}."
      },
      "totalSupply()": {
        "details": "See {IERC721Enumerable-totalSupply}."
      },
      "transferFrom(address,address,uint256)": {
        "details": "See {IERC721-transferFrom}."
      },
      "transferOwnership(address)": {
        "details": "Transfers ownership of the contract to a new account (`newOwner`). Can only be called by the current owner."
      },
      "unpause()": {
        "details": "Override unpause so it requires all external contract addresses  to be set before contract can be unpaused. Also, we can't have  newContractAddress set either, because then the contract was upgraded."
      },
      "withdrawAuctionBalances()": {
        "details": "Transfers the balance of the sale auction contract to the HauntooCore contract. We use two-step withdrawal to prevent two transfer calls in the auction bid function."
      }
    },
    "title": "CryptoHauntoos: Collectible, breedable, and oh-so-adorable cats on the Ethereum blockchain.",
    "version": 1
  },
  "userdoc": {
    "kind": "user",
    "methods": {
      "approveSiring(address,uint256)": {
        "notice": "Grants approval to another user to sire with one of your Hauntoos."
      },
      "autoBirthFee()": {
        "notice": "The minimum payment required to use breedWithAuto(). This fee goes towards  the gas cost paid by whatever calls giveBirth(), and can be dynamically updated by  the COO role as the gas price changes."
      },
      "breedWithAuto(uint256,uint256)": {
        "notice": "Breed a Hauntoo you own (as matron) with a sire that you own, or for which you  have previously been given Siring approval. Will either make your cat pregnant, or will  fail entirely. Requires a pre-payment of the fee given out to the first caller of giveBirth()"
      },
      "canBreedWith(uint256,uint256)": {
        "notice": "Checks to see if two cats can breed together, including checks for  ownership and siring approvals. Does NOT check that both cats are ready for  breeding (i.e. breedWith could still fail until the cooldowns are finished).  TODO: Shouldn't this check pregnancy and cooldowns?!?"
      },
      "constructor": {
        "notice": "Creates the main CryptoHauntoos smart contract instance."
      },
      "getHauntoo(uint256)": {
        "notice": "Returns all the relevant information about a specific hauntoo."
      },
      "giveBirth(uint256)": {
        "notice": "Have a pregnant Hauntoo give birth!"
      },
      "isReadyToBreed(uint256)": {
        "notice": "Checks that a given baby is able to breed (i.e. it is not pregnant or  in the middle of a siring cooldown)."
      },
      "unpause()": {
        "notice": "This is public rather than external so we can call super.unpause  without using an expensive CALL."
      }
    },
    "version": 1
  }
}