{
  "contractName": "SaleClockAuction",
  "abi": [
    {
      "inputs": [
        {
          "internalType": "address",
          "name": "_nftAddr",
          "type": "address"
        },
        {
          "internalType": "uint256",
          "name": "_cut",
          "type": "uint256"
        }
      ],
      "stateMutability": "nonpayable",
      "type": "constructor"
    },
    {
      "anonymous": false,
      "inputs": [
        {
          "indexed": false,
          "internalType": "uint256",
          "name": "tokenId",
          "type": "uint256"
        }
      ],
      "name": "AuctionCancelled",
      "type": "event"
    },
    {
      "anonymous": false,
      "inputs": [
        {
          "indexed": false,
          "internalType": "uint256",
          "name": "tokenId",
          "type": "uint256"
        },
        {
          "indexed": false,
          "internalType": "uint256",
          "name": "startingPrice",
          "type": "uint256"
        },
        {
          "indexed": false,
          "internalType": "uint256",
          "name": "endingPrice",
          "type": "uint256"
        },
        {
          "indexed": false,
          "internalType": "uint256",
          "name": "duration",
          "type": "uint256"
        }
      ],
      "name": "AuctionCreated",
      "type": "event"
    },
    {
      "anonymous": false,
      "inputs": [
        {
          "indexed": false,
          "internalType": "uint256",
          "name": "tokenId",
          "type": "uint256"
        },
        {
          "indexed": false,
          "internalType": "uint256",
          "name": "totalPrice",
          "type": "uint256"
        },
        {
          "indexed": false,
          "internalType": "address",
          "name": "winner",
          "type": "address"
        }
      ],
      "name": "AuctionSuccessful",
      "type": "event"
    },
    {
      "anonymous": false,
      "inputs": [
        {
          "indexed": true,
          "internalType": "address",
          "name": "previousOwner",
          "type": "address"
        },
        {
          "indexed": true,
          "internalType": "address",
          "name": "newOwner",
          "type": "address"
        }
      ],
      "name": "OwnershipTransferred",
      "type": "event"
    },
    {
      "anonymous": false,
      "inputs": [
        {
          "indexed": false,
          "internalType": "address",
          "name": "account",
          "type": "address"
        }
      ],
      "name": "Paused",
      "type": "event"
    },
    {
      "anonymous": false,
      "inputs": [
        {
          "indexed": false,
          "internalType": "address",
          "name": "account",
          "type": "address"
        }
      ],
      "name": "Unpaused",
      "type": "event"
    },
    {
      "inputs": [
        {
          "internalType": "uint256",
          "name": "_tokenId",
          "type": "uint256"
        }
      ],
      "name": "cancelAuction",
      "outputs": [],
      "stateMutability": "nonpayable",
      "type": "function"
    },
    {
      "inputs": [
        {
          "internalType": "uint256",
          "name": "_tokenId",
          "type": "uint256"
        }
      ],
      "name": "cancelAuctionWhenPaused",
      "outputs": [],
      "stateMutability": "nonpayable",
      "type": "function"
    },
    {
      "inputs": [],
      "name": "gen0SaleCount",
      "outputs": [
        {
          "internalType": "uint256",
          "name": "",
          "type": "uint256"
        }
      ],
      "stateMutability": "view",
      "type": "function"
    },
    {
      "inputs": [
        {
          "internalType": "uint256",
          "name": "_tokenId",
          "type": "uint256"
        }
      ],
      "name": "getAuction",
      "outputs": [
        {
          "internalType": "address",
          "name": "seller",
          "type": "address"
        },
        {
          "internalType": "uint256",
          "name": "startingPrice",
          "type": "uint256"
        },
        {
          "internalType": "uint256",
          "name": "endingPrice",
          "type": "uint256"
        },
        {
          "internalType": "uint256",
          "name": "duration",
          "type": "uint256"
        },
        {
          "internalType": "uint256",
          "name": "startedAt",
          "type": "uint256"
        }
      ],
      "stateMutability": "view",
      "type": "function"
    },
    {
      "inputs": [
        {
          "internalType": "uint256",
          "name": "_tokenId",
          "type": "uint256"
        }
      ],
      "name": "getCurrentPrice",
      "outputs": [
        {
          "internalType": "uint256",
          "name": "",
          "type": "uint256"
        }
      ],
      "stateMutability": "view",
      "type": "function"
    },
    {
      "inputs": [],
      "name": "isSaleClockAuction",
      "outputs": [
        {
          "internalType": "bool",
          "name": "",
          "type": "bool"
        }
      ],
      "stateMutability": "view",
      "type": "function"
    },
    {
      "inputs": [
        {
          "internalType": "uint256",
          "name": "",
          "type": "uint256"
        }
      ],
      "name": "lastGen0SalePrices",
      "outputs": [
        {
          "internalType": "uint256",
          "name": "",
          "type": "uint256"
        }
      ],
      "stateMutability": "view",
      "type": "function"
    },
    {
      "inputs": [],
      "name": "nonFungibleContract",
      "outputs": [
        {
          "internalType": "contract ERC721",
          "name": "",
          "type": "address"
        }
      ],
      "stateMutability": "view",
      "type": "function"
    },
    {
      "inputs": [],
      "name": "owner",
      "outputs": [
        {
          "internalType": "address",
          "name": "",
          "type": "address"
        }
      ],
      "stateMutability": "view",
      "type": "function"
    },
    {
      "inputs": [],
      "name": "ownerCut",
      "outputs": [
        {
          "internalType": "uint256",
          "name": "",
          "type": "uint256"
        }
      ],
      "stateMutability": "view",
      "type": "function"
    },
    {
      "inputs": [],
      "name": "paused",
      "outputs": [
        {
          "internalType": "bool",
          "name": "",
          "type": "bool"
        }
      ],
      "stateMutability": "view",
      "type": "function"
    },
    {
      "inputs": [],
      "name": "renounceOwnership",
      "outputs": [],
      "stateMutability": "nonpayable",
      "type": "function"
    },
    {
      "inputs": [
        {
          "internalType": "address",
          "name": "newOwner",
          "type": "address"
        }
      ],
      "name": "transferOwnership",
      "outputs": [],
      "stateMutability": "nonpayable",
      "type": "function"
    },
    {
      "inputs": [],
      "name": "withdrawBalance",
      "outputs": [],
      "stateMutability": "nonpayable",
      "type": "function"
    },
    {
      "inputs": [
        {
          "internalType": "uint256",
          "name": "_tokenId",
          "type": "uint256"
        },
        {
          "internalType": "uint256",
          "name": "_startingPrice",
          "type": "uint256"
        },
        {
          "internalType": "uint256",
          "name": "_endingPrice",
          "type": "uint256"
        },
        {
          "internalType": "uint256",
          "name": "_duration",
          "type": "uint256"
        },
        {
          "internalType": "address",
          "name": "_seller",
          "type": "address"
        }
      ],
      "name": "createAuction",
      "outputs": [],
      "stateMutability": "nonpayable",
      "type": "function"
    },
    {
      "inputs": [
        {
          "internalType": "uint256",
          "name": "_tokenId",
          "type": "uint256"
        }
      ],
      "name": "bid",
      "outputs": [],
      "stateMutability": "payable",
      "type": "function"
    },
    {
      "inputs": [],
      "name": "averageGen0SalePrice",
      "outputs": [
        {
          "internalType": "uint256",
          "name": "",
          "type": "uint256"
        }
      ],
      "stateMutability": "view",
      "type": "function"
    }
  ],
  "bytecode": "0x60806040526003805460ff60a01b1916600160a01b17905534801561002357600080fd5b5060405161112a38038061112a833981016040819052610042916100e9565b6000805460ff19169055818161005733610097565b61271081111561006657600080fd5b600155600080546001600160a01b0390921661010002610100600160a81b0319909216919091179055506101219050565b600380546001600160a01b038381166001600160a01b0319831681179093556040519116919082907f8be0079c531659141344cd1fd0a4f28419497f9722a3daafe3b4186f6b6457e090600090a35050565b600080604083850312156100fb578182fd5b82516001600160a01b0381168114610111578283fd5b6020939093015192949293505050565b610ffa806101306000396000f3fe6080604052600436106100fe5760003560e01c806385b861881161009557806396b5a7551161006457806396b5a755146102aa578063c55d0f56146102ca578063dd1b7a0f146102ea578063eac9d94c1461030f578063f2fde38b1461032457600080fd5b806385b8618814610221578063878eb368146102425780638a98a9cc146102625780638da5cb5b1461027857600080fd5b80635fd8c710116100d15780635fd8c7101461018f578063715018a6146101a457806378bd7935146101b957806383b5ff8b1461020b57600080fd5b806327ebe40a14610103578063454a2ab314610125578063484eccb4146101385780635c975abb1461016b575b600080fd5b34801561010f57600080fd5b5061012361011e366004610d59565b610344565b005b610123610133366004610d41565b610401565b34801561014457600080fd5b50610158610153366004610d41565b610497565b6040519081526020015b60405180910390f35b34801561017757600080fd5b5060005460ff165b6040519015158152602001610162565b34801561019b57600080fd5b506101236104ae565b3480156101b057600080fd5b5061012361053b565b3480156101c557600080fd5b506101d96101d4366004610d41565b61057a565b604080516001600160a01b0390961686526020860194909452928401919091526060830152608082015260a001610162565b34801561021757600080fd5b5061015860015481565b34801561022d57600080fd5b5060035461017f90600160a01b900460ff1681565b34801561024e57600080fd5b5061012361025d366004610d41565b610607565b34801561026e57600080fd5b5061015860045481565b34801561028457600080fd5b506003546001600160a01b03165b6040516001600160a01b039091168152602001610162565b3480156102b657600080fd5b506101236102c5366004610d41565b6106c5565b3480156102d657600080fd5b506101586102e5366004610d41565b61071b565b3480156102f657600080fd5b506000546102929061010090046001600160a01b031681565b34801561031b57600080fd5b50610158610760565b34801561033057600080fd5b5061012361033f366004610d27565b6107c1565b836001600160801b0316841461035957600080fd5b826001600160801b0316831461036e57600080fd5b816001600160401b0316821461038357600080fd5b60005461010090046001600160a01b0316331461039f57600080fd5b6103a9818661085c565b6040805160a0810182526001600160a01b03831681526001600160801b0380871660208301528516918101919091526001600160401b038084166060830152421660808201526103f986826108cb565b505050505050565b6000818152600260205260408120546001600160a01b03169061042483346109c5565b90506104303384610b0b565b6000546001600160a01b03838116610100909204161415610492578060058060045461045c9190610f84565b6005811061047a57634e487b7160e01b600052603260045260246000fd5b01556004805490600061048c83610f69565b91905055505b505050565b600581600581106104a757600080fd5b0154905081565b6000546001600160a01b03610100909104166104d26003546001600160a01b031690565b6001600160a01b0316336001600160a01b031614806104f95750336001600160a01b038216145b61050257600080fd5b6040516001600160a01b038216904780156108fc02916000818181858888f19350505050158015610537573d6000803e3d6000fd5b5050565b6003546001600160a01b0316331461056e5760405162461bcd60e51b815260040161056590610da1565b60405180910390fd5b6105786000610b50565b565b600081815260026020526040812081908190819081906105ae81600201546001600160401b03600160401b90910416151590565b6105b757600080fd5b805460018201546002909201546001600160a01b03909116986001600160801b038084169950600160801b90930490921696506001600160401b038082169650600160401b909104169350915050565b60005460ff166106505760405162461bcd60e51b815260206004820152601460248201527314185d5cd8589b194e881b9bdd081c185d5cd95960621b6044820152606401610565565b6003546001600160a01b0316331461067a5760405162461bcd60e51b815260040161056590610da1565b60008181526002602052604090206106a681600201546001600160401b03600160401b90910416151590565b6106af57600080fd5b80546105379083906001600160a01b0316610ba2565b60008181526002602052604090206106f181600201546001600160401b03600160401b90910416151590565b6106fa57600080fd5b80546001600160a01b031633811461071157600080fd5b6104928382610ba2565b600081815260026020526040812061074781600201546001600160401b03600160401b90910416151590565b61075057600080fd5b61075981610be5565b9392505050565b600080805b60058110156107af576005816005811061078f57634e487b7160e01b600052603260045260246000fd5b015461079b9083610e17565b9150806107a781610f69565b915050610765565b506107bb600582610e5d565b91505090565b6003546001600160a01b031633146107eb5760405162461bcd60e51b815260040161056590610da1565b6001600160a01b0381166108505760405162461bcd60e51b815260206004820152602660248201527f4f776e61626c653a206e6577206f776e657220697320746865207a65726f206160448201526564647265737360d01b6064820152608401610565565b61085981610b50565b50565b6000546040516323b872dd60e01b81526001600160a01b03848116600483015230602483015260448201849052610100909204909116906323b872dd906064015b600060405180830381600087803b1580156108b757600080fd5b505af11580156103f9573d6000803e3d6000fd5b603c81606001516001600160401b031610156108e657600080fd5b600082815260026020818152604092839020845181546001600160a01b039091166001600160a01b031990911617815590840151838501516001600160801b03908116600160801b8102919092169081176001840155606086015192909301805460808701516001600160401b03908116600160401b026001600160801b031992909216941693841717905592517fa9c8dfcda5664a5a124c713e386da27de87432d5b668e79458501eb296389ba7936109b9938793909293845260208401929092526040830152606082015260800190565b60405180910390a15050565b60008281526002602052604081206109f181600201546001600160401b03600160401b90910416151590565b6109fa57600080fd5b6000610a0582610be5565b905080841015610a1457600080fd5b81546001600160a01b0316610a2886610c5b565b8115610a84576000610a3983610c92565b90506000610a478285610f52565b6040519091506001600160a01b0384169082156108fc029083906000818181858888f19350505050158015610a80573d6000803e3d6000fd5b5050505b6000610a908387610f52565b604051909150339082156108fc029083906000818181858888f19350505050158015610ac0573d6000803e3d6000fd5b506040805188815260208101859052338183015290517f4fcc30d90a842164dd58501ab874a101a3749c3d4747139cefe7c876f4ccebd29181900360600190a1509095945050505050565b6000546040516323b872dd60e01b81523060048201526001600160a01b03848116602483015260448201849052610100909204909116906323b872dd9060640161089d565b600380546001600160a01b038381166001600160a01b0319831681179093556040519116919082907f8be0079c531659141344cd1fd0a4f28419497f9722a3daafe3b4186f6b6457e090600090a35050565b610bab82610c5b565b610bb58183610b0b565b6040518281527f2809c7e17bf978fbc7194c0a694b638c4215e9140cacc6c38ca36010b45697df906020016109b9565b60028101546000908190600160401b90046001600160401b0316421115610c28576002830154610c2590600160401b90046001600160401b031642610f52565b90505b60018301546002840154610759916001600160801b0380821692600160801b90920416906001600160401b031684610cb5565b6000908152600260208190526040822080546001600160a01b031916815560018101929092550180546001600160801b0319169055565b600061271060015483610ca59190610ef4565b610caf9190610e5d565b92915050565b6000828210610cc5575082610d03565b6000610cd18686610f13565b9050600084610ce08584610e71565b610cea9190610e2f565b90506000610cf88289610dd6565b9350610d0392505050565b949350505050565b80356001600160a01b0381168114610d2257600080fd5b919050565b600060208284031215610d38578081fd5b61075982610d0b565b600060208284031215610d52578081fd5b5035919050565b600080600080600060a08688031215610d70578081fd5b85359450602086013593506040860135925060608601359150610d9560808701610d0b565b90509295509295909350565b6020808252818101527f4f776e61626c653a2063616c6c6572206973206e6f7420746865206f776e6572604082015260600190565b600080821280156001600160ff1b0384900385131615610df857610df8610f98565b600160ff1b8390038412811615610e1157610e11610f98565b50500190565b60008219821115610e2a57610e2a610f98565b500190565b600082610e3e57610e3e610fae565b600160ff1b821460001984141615610e5857610e58610f98565b500590565b600082610e6c57610e6c610fae565b500490565b60006001600160ff1b0381841382841380821686840486111615610e9757610e97610f98565b600160ff1b84871282811687830589121615610eb557610eb5610f98565b858712925087820587128484161615610ed057610ed0610f98565b87850587128184161615610ee657610ee6610f98565b505050929093029392505050565b6000816000190483118215151615610f0e57610f0e610f98565b500290565b60008083128015600160ff1b850184121615610f3157610f31610f98565b6001600160ff1b0384018313811615610f4c57610f4c610f98565b50500390565b600082821015610f6457610f64610f98565b500390565b6000600019821415610f7d57610f7d610f98565b5060010190565b600082610f9357610f93610fae565b500690565b634e487b7160e01b600052601160045260246000fd5b634e487b7160e01b600052601260045260246000fdfea264697066735822122080fb3abbac5b0334e164f36787a5c93a769aa480cad827b4f9bac704a2cfb04164736f6c63430008040033",
  "immutableReferences": {},
  "source": "// SPDX-License-Identifier: GPL-3.0\r\n\r\npragma solidity ^0.8.0;\r\n\r\nimport './ClockAuction.sol';\r\n\r\n/// @title Clock auction modified for sale of kitties\r\n/// @notice We omit a fallback function to prevent accidental sends to this contract.\r\ncontract SaleClockAuction is ClockAuction {\r\n\r\n    // @dev Sanity check that allows us to ensure that we are pointing to the\r\n    //  right auction in our setSaleAuctionAddress() call.\r\n    bool public isSaleClockAuction = true;\r\n    \r\n    // Tracks last 5 sale price of gen0 kitty sales\r\n    uint256 public gen0SaleCount;\r\n    uint256[5] public lastGen0SalePrices;\r\n\r\n    // Delegate constructor\r\n    constructor(address _nftAddr, uint256 _cut)\r\n        ClockAuction(_nftAddr, _cut) {}\r\n\r\n    /// @dev Creates and begins a new auction.\r\n    /// @param _tokenId - ID of token to auction, sender must be owner.\r\n    /// @param _startingPrice - Price of item (in wei) at beginning of auction.\r\n    /// @param _endingPrice - Price of item (in wei) at end of auction.\r\n    /// @param _duration - Length of auction (in seconds).\r\n    /// @param _seller - Seller, if not the message sender\r\n    function createAuction(\r\n        uint256 _tokenId,\r\n        uint256 _startingPrice,\r\n        uint256 _endingPrice,\r\n        uint256 _duration,\r\n        address _seller\r\n    )\r\n        external\r\n        override\r\n    {\r\n        // Sanity check that no inputs overflow how many bits we've allocated\r\n        // to store them in the auction struct.\r\n        require(_startingPrice == uint256(uint128(_startingPrice)));\r\n        require(_endingPrice == uint256(uint128(_endingPrice)));\r\n        require(_duration == uint256(uint64(_duration)));\r\n\r\n        require(msg.sender == address(nonFungibleContract));\r\n        _escrow(_seller, _tokenId);\r\n        Auction memory auction = Auction(\r\n            _seller,\r\n            uint128(_startingPrice),\r\n            uint128(_endingPrice),\r\n            uint64(_duration),\r\n            uint64(block.timestamp)\r\n        );\r\n        _addAuction(_tokenId, auction);\r\n    }\r\n\r\n    /// @dev Updates lastSalePrice if seller is the nft contract\r\n    /// Otherwise, works the same as default bid method.\r\n    function bid(uint256 _tokenId)\r\n        external\r\n        override\r\n        payable\r\n    {\r\n        // _bid verifies token ID size\r\n        address seller = tokenIdToAuction[_tokenId].seller;\r\n        uint256 price = _bid(_tokenId, msg.value);\r\n        _transfer(msg.sender, _tokenId);\r\n\r\n        // If not a gen0 auction, exit\r\n        if (seller == address(nonFungibleContract)) {\r\n            // Track gen0 sale prices\r\n            lastGen0SalePrices[gen0SaleCount % 5] = price;\r\n            gen0SaleCount++;\r\n        }\r\n    }\r\n\r\n    function averageGen0SalePrice() external view returns (uint256) {\r\n        uint256 sum = 0;\r\n        for (uint256 i = 0; i < 5; i++) {\r\n            sum += lastGen0SalePrices[i];\r\n        }\r\n        return sum / 5;\r\n    }\r\n\r\n}",
  "sourcePath": "D:\\WorkSpace\\blockchain\\CryptoWebsite\\Hauntoo_Contract\\contracts\\SaleClockAuction.sol",
  "compiler": {
    "name": "solc",
    "version": "0.8.4+commit.c7e474f2.Emscripten.clang"
  },
  "schemaVersion": "3.4.3",
  "updatedAt": "2021-10-01T21:32:26.334Z",
  "networkType": "ethereum",
  "devdoc": {
    "kind": "dev",
    "methods": {
      "bid(uint256)": {
        "details": "Updates lastSalePrice if seller is the nft contract Otherwise, works the same as default bid method."
      },
      "cancelAuction(uint256)": {
        "details": "Cancels an auction that hasn't been won yet.  Returns the NFT to original owner.",
        "params": {
          "_tokenId": "- ID of token on auction"
        }
      },
      "cancelAuctionWhenPaused(uint256)": {
        "details": "Cancels an auction when the contract is paused.  Only the owner may do this, and NFTs are returned to  the seller. This should only be used in emergencies.",
        "params": {
          "_tokenId": "- ID of the NFT on auction to cancel."
        }
      },
      "createAuction(uint256,uint256,uint256,uint256,address)": {
        "details": "Creates and begins a new auction.",
        "params": {
          "_duration": "- Length of auction (in seconds).",
          "_endingPrice": "- Price of item (in wei) at end of auction.",
          "_seller": "- Seller, if not the message sender",
          "_startingPrice": "- Price of item (in wei) at beginning of auction.",
          "_tokenId": "- ID of token to auction, sender must be owner."
        }
      },
      "getAuction(uint256)": {
        "details": "Returns auction info for an NFT on auction.",
        "params": {
          "_tokenId": "- ID of NFT on auction."
        }
      },
      "getCurrentPrice(uint256)": {
        "details": "Returns the current price of an auction.",
        "params": {
          "_tokenId": "- ID of the token price we are checking."
        }
      },
      "owner()": {
        "details": "Returns the address of the current owner."
      },
      "paused()": {
        "details": "Returns true if the contract is paused, and false otherwise."
      },
      "renounceOwnership()": {
        "details": "Leaves the contract without owner. It will not be possible to call `onlyOwner` functions anymore. Can only be called by the current owner. NOTE: Renouncing ownership will leave the contract without an owner, thereby removing any functionality that is only available to the owner."
      },
      "transferOwnership(address)": {
        "details": "Transfers ownership of the contract to a new account (`newOwner`). Can only be called by the current owner."
      },
      "withdrawBalance()": {
        "details": "Remove all Ether from the contract, which is the owner's cuts  as well as any Ether sent directly to the contract address.  Always transfers to the NFT contract, but can be called either by  the owner or the NFT contract."
      }
    },
    "title": "Clock auction modified for sale of kitties",
    "version": 1
  },
  "userdoc": {
    "kind": "user",
    "methods": {
      "cancelAuction(uint256)": {
        "notice": "This is a state-modifying function that can  be called while the contract is paused."
      }
    },
    "notice": "We omit a fallback function to prevent accidental sends to this contract.",
    "version": 1
  }
}